{
  "address": "0xbb26c9C58df23e6212D73a00A6f8aC2aE100d598",
  "abi": [
    {
      "inputs": [],
      "stateMutability": "nonpayable",
      "type": "constructor"
    },
    {
      "anonymous": false,
      "inputs": [
        {
          "indexed": true,
          "internalType": "address",
          "name": "owner",
          "type": "address"
        },
        {
          "indexed": true,
          "internalType": "address",
          "name": "spender",
          "type": "address"
        },
        {
          "indexed": false,
          "internalType": "uint256",
          "name": "value",
          "type": "uint256"
        }
      ],
      "name": "Approval",
      "type": "event"
    },
    {
      "anonymous": false,
      "inputs": [
        {
          "indexed": true,
          "internalType": "address",
          "name": "previousOwner",
          "type": "address"
        },
        {
          "indexed": true,
          "internalType": "address",
          "name": "newOwner",
          "type": "address"
        }
      ],
      "name": "OwnershipTransferred",
      "type": "event"
    },
    {
      "anonymous": false,
      "inputs": [
        {
          "indexed": true,
          "internalType": "address",
          "name": "from",
          "type": "address"
        },
        {
          "indexed": true,
          "internalType": "address",
          "name": "to",
          "type": "address"
        },
        {
          "indexed": false,
          "internalType": "uint256",
          "name": "value",
          "type": "uint256"
        }
      ],
      "name": "Transfer",
      "type": "event"
    },
    {
      "inputs": [
        {
          "internalType": "address",
          "name": "owner",
          "type": "address"
        },
        {
          "internalType": "address",
          "name": "spender",
          "type": "address"
        }
      ],
      "name": "allowance",
      "outputs": [
        {
          "internalType": "uint256",
          "name": "",
          "type": "uint256"
        }
      ],
      "stateMutability": "view",
      "type": "function"
    },
    {
      "inputs": [
        {
          "internalType": "address",
          "name": "spender",
          "type": "address"
        },
        {
          "internalType": "uint256",
          "name": "amount",
          "type": "uint256"
        }
      ],
      "name": "approve",
      "outputs": [
        {
          "internalType": "bool",
          "name": "",
          "type": "bool"
        }
      ],
      "stateMutability": "nonpayable",
      "type": "function"
    },
    {
      "inputs": [
        {
          "internalType": "address",
          "name": "account",
          "type": "address"
        }
      ],
      "name": "balanceOf",
      "outputs": [
        {
          "internalType": "uint256",
          "name": "",
          "type": "uint256"
        }
      ],
      "stateMutability": "view",
      "type": "function"
    },
    {
      "inputs": [],
      "name": "decimals",
      "outputs": [
        {
          "internalType": "uint8",
          "name": "",
          "type": "uint8"
        }
      ],
      "stateMutability": "view",
      "type": "function"
    },
    {
      "inputs": [
        {
          "internalType": "address",
          "name": "spender",
          "type": "address"
        },
        {
          "internalType": "uint256",
          "name": "subtractedValue",
          "type": "uint256"
        }
      ],
      "name": "decreaseAllowance",
      "outputs": [
        {
          "internalType": "bool",
          "name": "",
          "type": "bool"
        }
      ],
      "stateMutability": "nonpayable",
      "type": "function"
    },
    {
      "inputs": [],
      "name": "depositFunds",
      "outputs": [],
      "stateMutability": "payable",
      "type": "function"
    },
    {
      "inputs": [
        {
          "internalType": "address",
          "name": "nftContractAddress",
          "type": "address"
        },
        {
          "internalType": "uint256",
          "name": "tokenId",
          "type": "uint256"
        }
      ],
      "name": "foreclose",
      "outputs": [],
      "stateMutability": "nonpayable",
      "type": "function"
    },
    {
      "inputs": [],
      "name": "getAllDepositors",
      "outputs": [
        {
          "internalType": "address[]",
          "name": "",
          "type": "address[]"
        }
      ],
      "stateMutability": "view",
      "type": "function"
    },
    {
      "inputs": [
        {
          "internalType": "address",
          "name": "addr",
          "type": "address"
        }
      ],
      "name": "getAmountAvailableToWithdraw",
      "outputs": [
        {
          "internalType": "uint256",
          "name": "",
          "type": "uint256"
        }
      ],
      "stateMutability": "view",
      "type": "function"
    },
    {
      "inputs": [
        {
          "internalType": "address",
          "name": "lender",
          "type": "address"
        }
      ],
      "name": "getDepositsForLender",
      "outputs": [
        {
          "internalType": "uint256",
          "name": "",
          "type": "uint256"
        }
      ],
      "stateMutability": "view",
      "type": "function"
    },
    {
      "inputs": [],
      "name": "getDepositsLocked",
      "outputs": [
        {
          "internalType": "uint256",
          "name": "",
          "type": "uint256"
        }
      ],
      "stateMutability": "view",
      "type": "function"
    },
    {
      "inputs": [
        {
          "internalType": "address",
          "name": "nftContractAddress",
          "type": "address"
        }
      ],
      "name": "getInterestAmountForCollection",
      "outputs": [
        {
          "internalType": "uint256",
          "name": "",
          "type": "uint256"
        }
      ],
      "stateMutability": "nonpayable",
      "type": "function"
    },
    {
      "inputs": [
        {
          "internalType": "address",
          "name": "collectionAddress",
          "type": "address"
        }
      ],
      "name": "getInterestRateForCollection",
      "outputs": [
        {
          "internalType": "uint256",
          "name": "",
          "type": "uint256"
        }
      ],
      "stateMutability": "view",
      "type": "function"
    },
    {
      "inputs": [
        {
          "internalType": "address",
          "name": "collectionAddress",
          "type": "address"
        }
      ],
      "name": "getLoanAmountForCollection",
      "outputs": [
        {
          "internalType": "uint256",
          "name": "",
          "type": "uint256"
        }
      ],
      "stateMutability": "view",
      "type": "function"
    },
    {
      "inputs": [
        {
          "internalType": "address",
          "name": "nftContractAddress",
          "type": "address"
        },
        {
          "internalType": "uint256",
          "name": "tokenId",
          "type": "uint256"
        }
      ],
      "name": "getLoanAmountForLockedNFT",
      "outputs": [
        {
          "internalType": "uint256",
          "name": "",
          "type": "uint256"
        }
      ],
      "stateMutability": "view",
      "type": "function"
    },
    {
      "inputs": [
        {
          "internalType": "address",
          "name": "nftContractAddress",
          "type": "address"
        },
        {
          "internalType": "uint256",
          "name": "tokenId",
          "type": "uint256"
        }
      ],
      "name": "getLoanDueDateforLockedNFT",
      "outputs": [
        {
          "internalType": "uint256",
          "name": "",
          "type": "uint256"
        }
      ],
      "stateMutability": "view",
      "type": "function"
    },
    {
      "inputs": [
        {
          "internalType": "address",
          "name": "nftContractAddress",
          "type": "address"
        },
        {
          "internalType": "uint256",
          "name": "tokenId",
          "type": "uint256"
        }
      ],
      "name": "getLoanInterestAmountForLockedNFT",
      "outputs": [
        {
          "internalType": "uint256",
          "name": "",
          "type": "uint256"
        }
      ],
      "stateMutability": "view",
      "type": "function"
    },
    {
      "inputs": [
        {
          "internalType": "address",
          "name": "nftContractAddress",
          "type": "address"
        },
        {
          "internalType": "uint256",
          "name": "tokenId",
          "type": "uint256"
        }
      ],
      "name": "getOwnerForLockedNFT",
      "outputs": [
        {
          "internalType": "address",
          "name": "",
          "type": "address"
        }
      ],
      "stateMutability": "view",
      "type": "function"
    },
    {
      "inputs": [],
      "name": "getPricePerShare",
      "outputs": [
        {
          "internalType": "uint256",
          "name": "",
          "type": "uint256"
        }
      ],
      "stateMutability": "view",
      "type": "function"
    },
    {
      "inputs": [],
      "name": "getVaultCap",
      "outputs": [
        {
          "internalType": "uint256",
          "name": "",
          "type": "uint256"
        }
      ],
      "stateMutability": "view",
      "type": "function"
    },
    {
      "inputs": [],
      "name": "getWhitelistedCollections",
      "outputs": [
        {
          "internalType": "address[]",
          "name": "",
          "type": "address[]"
        }
      ],
      "stateMutability": "view",
      "type": "function"
    },
    {
      "inputs": [
        {
          "internalType": "address",
          "name": "spender",
          "type": "address"
        },
        {
          "internalType": "uint256",
          "name": "addedValue",
          "type": "uint256"
        }
      ],
      "name": "increaseAllowance",
      "outputs": [
        {
          "internalType": "bool",
          "name": "",
          "type": "bool"
        }
      ],
      "stateMutability": "nonpayable",
      "type": "function"
    },
    {
      "inputs": [],
      "name": "name",
      "outputs": [
        {
          "internalType": "string",
          "name": "",
          "type": "string"
        }
      ],
      "stateMutability": "view",
      "type": "function"
    },
    {
      "inputs": [
        {
          "internalType": "address",
          "name": "operator",
          "type": "address"
        },
        {
          "internalType": "address",
          "name": "from",
          "type": "address"
        },
        {
          "internalType": "uint256",
          "name": "tokenId",
          "type": "uint256"
        },
        {
          "internalType": "bytes",
          "name": "data",
          "type": "bytes"
        }
      ],
      "name": "onERC721Received",
      "outputs": [
        {
          "internalType": "bytes4",
          "name": "",
          "type": "bytes4"
        }
      ],
      "stateMutability": "nonpayable",
      "type": "function"
    },
    {
      "inputs": [],
      "name": "owner",
      "outputs": [
        {
          "internalType": "address",
          "name": "",
          "type": "address"
        }
      ],
      "stateMutability": "view",
      "type": "function"
    },
    {
      "inputs": [],
      "name": "renounceOwnership",
      "outputs": [],
      "stateMutability": "nonpayable",
      "type": "function"
    },
    {
      "inputs": [
        {
          "internalType": "address",
          "name": "nftContractAddress",
          "type": "address"
        },
        {
          "internalType": "uint256",
          "name": "tokenId",
          "type": "uint256"
        }
      ],
      "name": "repayLoanForNFT",
      "outputs": [],
      "stateMutability": "payable",
      "type": "function"
    },
    {
      "inputs": [
        {
          "internalType": "uint256",
          "name": "cap",
          "type": "uint256"
        }
      ],
      "name": "setCap",
      "outputs": [],
      "stateMutability": "nonpayable",
      "type": "function"
    },
    {
      "inputs": [
        {
          "internalType": "address",
          "name": "foreclosureContract",
          "type": "address"
        }
      ],
      "name": "setForeclosureContract",
      "outputs": [],
      "stateMutability": "nonpayable",
      "type": "function"
    },
    {
      "inputs": [
        {
          "internalType": "uint256",
          "name": "duration",
          "type": "uint256"
        }
      ],
      "name": "setLoanDuration",
      "outputs": [],
      "stateMutability": "nonpayable",
      "type": "function"
    },
    {
      "inputs": [
        {
          "internalType": "uint256",
          "name": "price",
          "type": "uint256"
        }
      ],
      "name": "setPricePerShare",
      "outputs": [],
      "stateMutability": "nonpayable",
      "type": "function"
    },
    {
      "inputs": [],
      "name": "symbol",
      "outputs": [
        {
          "internalType": "string",
          "name": "",
          "type": "string"
        }
      ],
      "stateMutability": "view",
      "type": "function"
    },
    {
      "inputs": [
        {
          "internalType": "address",
          "name": "nftContractAddress",
          "type": "address"
        },
        {
          "internalType": "uint256",
          "name": "tokenId",
          "type": "uint256"
        }
      ],
      "name": "takeLoan",
      "outputs": [],
      "stateMutability": "nonpayable",
      "type": "function"
    },
    {
      "inputs": [],
      "name": "totalSupply",
      "outputs": [
        {
          "internalType": "uint256",
          "name": "",
          "type": "uint256"
        }
      ],
      "stateMutability": "view",
      "type": "function"
    },
    {
      "inputs": [
        {
          "internalType": "address",
          "name": "recipient",
          "type": "address"
        },
        {
          "internalType": "uint256",
          "name": "amount",
          "type": "uint256"
        }
      ],
      "name": "transfer",
      "outputs": [
        {
          "internalType": "bool",
          "name": "",
          "type": "bool"
        }
      ],
      "stateMutability": "nonpayable",
      "type": "function"
    },
    {
      "inputs": [
        {
          "internalType": "address",
          "name": "sender",
          "type": "address"
        },
        {
          "internalType": "address",
          "name": "recipient",
          "type": "address"
        },
        {
          "internalType": "uint256",
          "name": "amount",
          "type": "uint256"
        }
      ],
      "name": "transferFrom",
      "outputs": [
        {
          "internalType": "bool",
          "name": "",
          "type": "bool"
        }
      ],
      "stateMutability": "nonpayable",
      "type": "function"
    },
    {
      "inputs": [
        {
          "internalType": "address",
          "name": "newOwner",
          "type": "address"
        }
      ],
      "name": "transferOwnership",
      "outputs": [],
      "stateMutability": "nonpayable",
      "type": "function"
    },
    {
      "inputs": [
        {
          "internalType": "address",
          "name": "collectionAddress",
          "type": "address"
        },
        {
          "internalType": "uint256",
          "name": "lendingPrice",
          "type": "uint256"
        },
        {
          "internalType": "uint256",
          "name": "interestRatePercent",
          "type": "uint256"
        }
      ],
      "name": "whitelistCollection",
      "outputs": [],
      "stateMutability": "nonpayable",
      "type": "function"
    },
    {
      "inputs": [
        {
          "internalType": "uint256",
          "name": "amountRequested",
          "type": "uint256"
        }
      ],
      "name": "withdrawFunds",
      "outputs": [],
      "stateMutability": "nonpayable",
      "type": "function"
    }
  ],
  "transactionHash": "0xfa867372166b5d5b4a8e2d4926089334429d2546bd52b9e76137f95b9fc1f395",
  "args": [],
  "solcInputHash": "9cb47c32e23bf36299cb4d4e2bbb4d42",
  "bytecode": "0x6080604052681b1ae4d6e2ef50000060065562093a80600755670de0b6b3a76400006008553480156200003157600080fd5b5060405180604001604052806009815260200168054414e47454c4f4c560bc1b815250604051806040016040528060038152602001620544c560ec1b81525081600390805190602001906200008892919062000117565b5080516200009e90600490602084019062000117565b505050620000bb620000b5620000c160201b60201c565b620000c5565b620001fa565b3390565b600580546001600160a01b038381166001600160a01b0319831681179093556040519116919082907f8be0079c531659141344cd1fd0a4f28419497f9722a3daafe3b4186f6b6457e090600090a35050565b8280546200012590620001bd565b90600052602060002090601f01602090048101928262000149576000855562000194565b82601f106200016457805160ff191683800117855562000194565b8280016001018555821562000194579182015b828111156200019457825182559160200191906001019062000177565b50620001a2929150620001a6565b5090565b5b80821115620001a25760008155600101620001a7565b600281046001821680620001d257607f821691505b60208210811415620001f457634e487b7160e01b600052602260045260246000fd5b50919050565b612139806200020a6000396000f3fe6080604052600436106102305760003560e01c8063715018a61161012e5780639f8a3934116100ab578063dd62ed3e1161006f578063dd62ed3e14610662578063e2c41dbc14610682578063e7cf0b4a1461068a578063f2fde38b146106aa578063fa67e7ff146106ca57610230565b80639f8a3934146105cd578063a457c2d7146105e2578063a9059cbb14610602578063b824a0d814610622578063d2780fa01461064257610230565b8063905adcdd116100f2578063905adcdd1461054e57806395d89b411461056e578063980fe709146105835780639da31417146105985780639e358be1146105ad57610230565b8063715018a6146104b55780637c3fd019146104ca5780638b0279d2146104ea5780638cce66be1461050c5780638da5cb5b1461052c57610230565b80632ac14960116101bc57806347786d371161018057806347786d3714610415578063538438321461043557806361e6027d1461045557806370a082311461047557806370f447af1461049557610230565b80632ac149601461037e578063313ce5671461039e5780633506b59a146103c057806339509351146103e05780633d68175c1461040057610230565b8063150b7a0211610203578063150b7a02146102dc578063155dd5ee1461030957806318160ddd1461032957806322a4dc851461033e57806323b872dd1461035e57610230565b806306fdde0314610235578063095ea7b3146102605780630f8cc3081461028d578063118c9a07146102ba575b600080fd5b34801561024157600080fd5b5061024a6106dd565b6040516102579190611af9565b60405180910390f35b34801561026c57600080fd5b5061028061027b3660046119e1565b61076f565b6040516102579190611ad9565b34801561029957600080fd5b506102ad6102a83660046119e1565b61078c565b604051610257919061202d565b3480156102c657600080fd5b506102da6102d5366004611a3c565b6107b7565b005b3480156102e857600080fd5b506102fc6102f736600461194b565b610804565b6040516102579190611ae4565b34801561031557600080fd5b506102da610324366004611a3c565b61082e565b34801561033557600080fd5b506102ad6108ef565b34801561034a57600080fd5b506102ad6103593660046118bd565b6108f5565b34801561036a57600080fd5b50610280610379366004611910565b610914565b34801561038a57600080fd5b506102da6103993660046118bd565b6109a4565b3480156103aa57600080fd5b506103b36109e6565b6040516102579190612036565b3480156103cc57600080fd5b506102ad6103db3660046118bd565b6109eb565b3480156103ec57600080fd5b506102806103fb3660046119e1565b610a06565b34801561040c57600080fd5b506102ad610a5a565b34801561042157600080fd5b506102da610430366004611a3c565b610a60565b34801561044157600080fd5b506102ad6104503660046118bd565b610aa4565b34801561046157600080fd5b506102ad6104703660046119e1565b610ae4565b34801561048157600080fd5b506102ad6104903660046118bd565b610b0f565b3480156104a157600080fd5b506102ad6104b03660046118bd565b610b2a565b3480156104c157600080fd5b506102da610b45565b3480156104d657600080fd5b506102ad6104e53660046119e1565b610b90565b3480156104f657600080fd5b506104ff610bbb565b6040516102579190611a8c565b34801561051857600080fd5b506102da610527366004611a0a565b610c1c565b34801561053857600080fd5b50610541610cc3565b6040516102579190611a54565b34801561055a57600080fd5b506102da6105693660046119e1565b610cd2565b34801561057a57600080fd5b5061024a610e55565b34801561058f57600080fd5b506102ad610e64565b3480156105a457600080fd5b506104ff610e6a565b3480156105b957600080fd5b506102da6105c83660046119e1565b610eca565b3480156105d957600080fd5b506102ad61109f565b3480156105ee57600080fd5b506102806105fd3660046119e1565b6110a5565b34801561060e57600080fd5b5061028061061d3660046119e1565b61111e565b34801561062e57600080fd5b5061054161063d3660046119e1565b611132565b34801561064e57600080fd5b506102da61065d366004611a3c565b61115a565b34801561066e57600080fd5b506102ad61067d3660046118de565b61119e565b6102da6111c9565b34801561069657600080fd5b506102ad6106a53660046118bd565b611298565b3480156106b657600080fd5b506102da6106c53660046118bd565b6112af565b6102da6106d83660046119e1565b61131d565b6060600380546106ec906120b2565b80601f0160208091040260200160405190810160405280929190818152602001828054610718906120b2565b80156107655780601f1061073a57610100808354040283529160200191610765565b820191906000526020600020905b81548152906001019060200180831161074857829003601f168201915b5050505050905090565b600061078361077c6114ba565b84846114be565b50600192915050565b6001600160a01b03919091166000908152600c60209081526040808320938352929052206003015490565b6107bf6114ba565b6001600160a01b03166107d0610cc3565b6001600160a01b0316146107ff5760405162461bcd60e51b81526004016107f690611e0e565b60405180910390fd5b600855565b7f150b7a023d4804d13e8c85fb27262cb750cf6ba9f9dd3bb30d90f482ceeb4b1f95945050505050565b600061083933611298565b90508082111561085b5760405162461bcd60e51b81526004016107f690611d12565b60095482111561087d5760405162461bcd60e51b81526004016107f690611f85565b60085460009061089584670de0b6b3a764000061207c565b61089f919061205c565b90506108ab3382611572565b826009546108b9919061209b565b600955604051339084156108fc029085906000818181858888f193505050501580156108e9573d6000803e3d6000fd5b50505050565b60025490565b6001600160a01b0381166000908152600b60205260409020545b919050565b6000610921848484611664565b6001600160a01b0384166000908152600160205260408120816109426114ba565b6001600160a01b03166001600160a01b03168152602001908152602001600020549050828110156109855760405162461bcd60e51b81526004016107f690611dc6565b610999856109916114ba565b8584036114be565b506001949350505050565b6109ac6114ba565b6001600160a01b03166109bd610cc3565b6001600160a01b0316146109e35760405162461bcd60e51b81526004016107f690611e0e565b50565b601290565b6001600160a01b03166000908152600a602052604090205490565b6000610783610a136114ba565b848460016000610a216114ba565b6001600160a01b03908116825260208083019390935260409182016000908120918b1681529252902054610a559190612044565b6114be565b60085490565b610a686114ba565b6001600160a01b0316610a79610cc3565b6001600160a01b031614610a9f5760405162461bcd60e51b81526004016107f690611e0e565b600655565b6001600160a01b0381166000908152600b602052604081205461271090610aca846109eb565b610ad4919061207c565b610ade919061205c565b92915050565b6001600160a01b03919091166000908152600c60209081526040808320938352929052206002015490565b6001600160a01b031660009081526020819052604090205490565b6001600160a01b03166000908152600e602052604090205490565b610b4d6114ba565b6001600160a01b0316610b5e610cc3565b6001600160a01b031614610b845760405162461bcd60e51b81526004016107f690611e0e565b610b8e6000611788565b565b6001600160a01b03919091166000908152600c60209081526040808320938352929052206001015490565b6060601180548060200260200160405190810160405280929190818152602001828054801561076557602002820191906000526020600020905b81546001600160a01b03168152600190910190602001808311610bf5575050505050905090565b610c246114ba565b6001600160a01b0316610c35610cc3565b6001600160a01b031614610c5b5760405162461bcd60e51b81526004016107f690611e0e565b60118054600181019091557f31ecc21a745e3968a04e9570e4425bc18fa8019c68028196b546d1669c200c680180546001600160a01b039094166001600160a01b0319909416841790556000928352600a6020908152604080852093909355600b9052912055565b6005546001600160a01b031690565b610cda6114ba565b6001600160a01b0316610ceb610cc3565b6001600160a01b031614610d115760405162461bcd60e51b81526004016107f690611e0e565b6001600160a01b038083166000908152600c60209081526040808320858452808352818420825160808101845281549096168652600181015486850152600281015492860192909252600390910154606085018190529285905290524211610d7857600080fd5b604051632142170760e11b815283906001600160a01b038216906342842e0e90610daa90309033908890600401611a68565b600060405180830381600087803b158015610dc457600080fd5b505af1158015610dd8573d6000803e3d6000fd5b505050506001600160a01b0384166000908152600c602090815260408083208684528252822080546001600160a01b031916815560018101839055600281018390556003019190915560095490830151600854610e35919061207c565b610e3f919061205c565b600854610e4c919061209b565b60085550505050565b6060600480546106ec906120b2565b60095490565b6060600f805480602002602001604051908101604052809291908181526020018280548015610765576020028201919060005260206000209081546001600160a01b03168152600190910190602001808311610bf5575050505050905090565b6001600160a01b0382166000908152600a60205260409020548290610f015760405162461bcd60e51b81526004016107f690611cdd565b6000610f0c846109eb565b90506000610f1985610aa4565b9050600954821115610f3d5760405162461bcd60e51b81526004016107f690611f39565b604051632142170760e11b81526001600160a01b038416906342842e0e90610f6d90339030908990600401611a68565b600060405180830381600087803b158015610f8757600080fd5b505af1158015610f9b573d6000803e3d6000fd5b505050506040518060800160405280336001600160a01b0316815260200183815260200182815260200160075442610fd39190612044565b90526001600160a01b038681166000908152600c602090815260408083208984528252808320855181546001600160a01b0319908116919096161781559185015160018084019190915585820151600284015560609095015160039092019190915560108054948501815582527f1b6847dc741a1b0cd08d278845f9d819d87b734759afb55fe2de5cb82a9ae672909301805433931683179055915190916108fc851502918591818181858888f19350505050158015611097573d6000803e3d6000fd5b505050505050565b60065490565b600080600160006110b46114ba565b6001600160a01b03908116825260208083019390935260409182016000908120918816815292529020549050828110156111005760405162461bcd60e51b81526004016107f690611fb1565b61111461110b6114ba565b858584036114be565b5060019392505050565b600061078361112b6114ba565b8484611664565b6001600160a01b039182166000908152600c6020908152604080832093835292905220541690565b6111626114ba565b6001600160a01b0316611173610cc3565b6001600160a01b0316146111995760405162461bcd60e51b81526004016107f690611e0e565b600755565b6001600160a01b03918216600090815260016020908152604080832093909416825291909152205490565b600034116111e95760405162461bcd60e51b81526004016107f690611d8f565b6006546009546111f99034612044565b11156112175760405162461bcd60e51b81526004016107f690611f0d565b600f80546001810182556000919091527f8d1108e10bcb7c27dddfc02ed9d693a074039d026cf4ea4240b40f7d581ac8020180546001600160a01b03191633179055600954611267903490612044565b60095560085460009061128234670de0b6b3a764000061207c565b61128c919061205c565b90506109e333826117da565b6000670de0b6b3a7640000600854610aca84610b0f565b6112b76114ba565b6001600160a01b03166112c8610cc3565b6001600160a01b0316146112ee5760405162461bcd60e51b81526004016107f690611e0e565b6001600160a01b0381166113145760405162461bcd60e51b81526004016107f690611c08565b6109e381611788565b6001600160a01b038083166000908152600c6020908152604080832085845282529182902082516080810184528154909416808552600182015492850192909252600281015492840192909252600390910154606083015283919033146113965760405162461bcd60e51b81526004016107f690611c90565b806040015181602001516113aa9190612044565b34146113c85760405162461bcd60e51b81526004016107f690611bd1565b60095481604001516008546113dd919061207c565b6113e7919061205c565b6008546113f49190612044565b60085560408101516009546114099190612044565b600955604051632142170760e11b81526001600160a01b038316906342842e0e9061143c90309033908890600401611a68565b600060405180830381600087803b15801561145657600080fd5b505af115801561146a573d6000803e3d6000fd5b5050506001600160a01b039094166000908152600c6020908152604080832095835294905292832080546001600160a01b0319168155600181018490556002810184905560030192909255505050565b3390565b6001600160a01b0383166114e45760405162461bcd60e51b81526004016107f690611ec9565b6001600160a01b03821661150a5760405162461bcd60e51b81526004016107f690611c4e565b6001600160a01b0380841660008181526001602090815260408083209487168084529490915290819020849055517f8c5be1e5ebec7d5bd14f71427d1e84f3dd0314c0f7b2291e5b200ac8c7c3b9259061156590859061202d565b60405180910390a3505050565b6001600160a01b0382166115985760405162461bcd60e51b81526004016107f690611e43565b6115a48260008361165f565b6001600160a01b038216600090815260208190526040902054818110156115dd5760405162461bcd60e51b81526004016107f690611b8f565b6001600160a01b038316600090815260208190526040812083830390556002805484929061160c90849061209b565b90915550506040516000906001600160a01b038516907fddf252ad1be2c89b69c2b068fc378daa952ba7f163c4a11628f55a4df523b3ef9061164f90869061202d565b60405180910390a361165f836000845b505050565b6001600160a01b03831661168a5760405162461bcd60e51b81526004016107f690611e84565b6001600160a01b0382166116b05760405162461bcd60e51b81526004016107f690611b4c565b6116bb83838361165f565b6001600160a01b038316600090815260208190526040902054818110156116f45760405162461bcd60e51b81526004016107f690611d49565b6001600160a01b0380851660009081526020819052604080822085850390559185168152908120805484929061172b908490612044565b92505081905550826001600160a01b0316846001600160a01b03167fddf252ad1be2c89b69c2b068fc378daa952ba7f163c4a11628f55a4df523b3ef84604051611775919061202d565b60405180910390a36108e984848461165f565b600580546001600160a01b038381166001600160a01b0319831681179093556040519116919082907f8be0079c531659141344cd1fd0a4f28419497f9722a3daafe3b4186f6b6457e090600090a35050565b6001600160a01b0382166118005760405162461bcd60e51b81526004016107f690611ff6565b61180c6000838361165f565b806002600082825461181e9190612044565b90915550506001600160a01b0382166000908152602081905260408120805483929061184b908490612044565b90915550506040516001600160a01b038316906000907fddf252ad1be2c89b69c2b068fc378daa952ba7f163c4a11628f55a4df523b3ef9061188e90859061202d565b60405180910390a36118a26000838361165f565b5050565b80356001600160a01b038116811461090f57600080fd5b6000602082840312156118ce578081fd5b6118d7826118a6565b9392505050565b600080604083850312156118f0578081fd5b6118f9836118a6565b9150611907602084016118a6565b90509250929050565b600080600060608486031215611924578081fd5b61192d846118a6565b925061193b602085016118a6565b9150604084013590509250925092565b600080600080600060808688031215611962578081fd5b61196b866118a6565b9450611979602087016118a6565b935060408601359250606086013567ffffffffffffffff8082111561199c578283fd5b818801915088601f8301126119af578283fd5b8135818111156119bd578384fd5b8960208285010111156119ce578384fd5b9699959850939650602001949392505050565b600080604083850312156119f3578182fd5b6119fc836118a6565b946020939093013593505050565b600080600060608486031215611a1e578283fd5b611a27846118a6565b95602085013595506040909401359392505050565b600060208284031215611a4d578081fd5b5035919050565b6001600160a01b0391909116815260200190565b6001600160a01b039384168152919092166020820152604081019190915260600190565b6020808252825182820181905260009190848201906040850190845b81811015611acd5783516001600160a01b031683529284019291840191600101611aa8565b50909695505050505050565b901515815260200190565b6001600160e01b031991909116815260200190565b6000602080835283518082850152825b81811015611b2557858101830151858201604001528201611b09565b81811115611b365783604083870101525b50601f01601f1916929092016040019392505050565b60208082526023908201527f45524332303a207472616e7366657220746f20746865207a65726f206164647260408201526265737360e81b606082015260800190565b60208082526022908201527f45524332303a206275726e20616d6f756e7420657863656564732062616c616e604082015261636560f01b606082015260800190565b60208082526017908201527f53656e642074686520636f727265637420616d6f756e74000000000000000000604082015260600190565b60208082526026908201527f4f776e61626c653a206e6577206f776e657220697320746865207a65726f206160408201526564647265737360d01b606082015260800190565b60208082526022908201527f45524332303a20617070726f766520746f20746865207a65726f206164647265604082015261737360f01b606082015260800190565b6020808252602d908201527f43616c6c6572206d75737420626520746865206f6e652077686f206465706f7360408201526c1a5d1959081d1a1a5cc8139195609a1b606082015260800190565b6020808252818101527f4e465420636f6c6c656374696f6e206e6f7420737570706f7274656420796574604082015260600190565b6020808252601c908201527f4e6f7420656e6f7567682066756e647320746f20776974686472617700000000604082015260600190565b60208082526026908201527f45524332303a207472616e7366657220616d6f756e7420657863656564732062604082015265616c616e636560d01b606082015260800190565b6020808252601c908201527f4d757374206465706f73697420706f73697469766520616d6f756e7400000000604082015260600190565b60208082526028908201527f45524332303a207472616e7366657220616d6f756e74206578636565647320616040820152676c6c6f77616e636560c01b606082015260800190565b6020808252818101527f4f776e61626c653a2063616c6c6572206973206e6f7420746865206f776e6572604082015260600190565b60208082526021908201527f45524332303a206275726e2066726f6d20746865207a65726f206164647265736040820152607360f81b606082015260800190565b60208082526025908201527f45524332303a207472616e736665722066726f6d20746865207a65726f206164604082015264647265737360d81b606082015260800190565b60208082526024908201527f45524332303a20617070726f76652066726f6d20746865207a65726f206164646040820152637265737360e01b606082015260800190565b60208082526012908201527115985d5b1d0818d85c08195e18d95959195960721b604082015260600190565b6020808252602c908201527f4e6f7420656e6f7567682066756e647320696e207661756c7420746f20636f7660408201526b32b9103a3434b9903637b0b760a11b606082015260800190565b6020808252601290820152715661756c74206f7574206f66206d6f6e657960701b604082015260600190565b60208082526025908201527f45524332303a2064656372656173656420616c6c6f77616e63652062656c6f77604082015264207a65726f60d81b606082015260800190565b6020808252601f908201527f45524332303a206d696e7420746f20746865207a65726f206164647265737300604082015260600190565b90815260200190565b60ff91909116815260200190565b60008219821115612057576120576120ed565b500190565b60008261207757634e487b7160e01b81526012600452602481fd5b500490565b6000816000190483118215151615612096576120966120ed565b500290565b6000828210156120ad576120ad6120ed565b500390565b6002810460018216806120c657607f821691505b602082108114156120e757634e487b7160e01b600052602260045260246000fd5b50919050565b634e487b7160e01b600052601160045260246000fdfea26469706673582212200677fd0368d19ee0c01448290cca1c4ccadccc105e9a07b67baff88f44bdbccd64736f6c63430008000033",
  "devdoc": {
    "kind": "dev",
    "methods": {
      "allowance(address,address)": {
        "details": "See {IERC20-allowance}."
      },
      "approve(address,uint256)": {
        "details": "See {IERC20-approve}. Requirements: - `spender` cannot be the zero address."
      },
      "balanceOf(address)": {
        "details": "See {IERC20-balanceOf}."
      },
      "decimals()": {
        "details": "Returns the number of decimals used to get its user representation. For example, if `decimals` equals `2`, a balance of `505` tokens should be displayed to a user as `5.05` (`505 / 10 ** 2`). Tokens usually opt for a value of 18, imitating the relationship between Ether and Wei. This is the value {ERC20} uses, unless this function is overridden; NOTE: This information is only used for _display_ purposes: it in no way affects any of the arithmetic of the contract, including {IERC20-balanceOf} and {IERC20-transfer}."
      },
      "decreaseAllowance(address,uint256)": {
        "details": "Atomically decreases the allowance granted to `spender` by the caller. This is an alternative to {approve} that can be used as a mitigation for problems described in {IERC20-approve}. Emits an {Approval} event indicating the updated allowance. Requirements: - `spender` cannot be the zero address. - `spender` must have allowance for the caller of at least `subtractedValue`."
      },
      "increaseAllowance(address,uint256)": {
        "details": "Atomically increases the allowance granted to `spender` by the caller. This is an alternative to {approve} that can be used as a mitigation for problems described in {IERC20-approve}. Emits an {Approval} event indicating the updated allowance. Requirements: - `spender` cannot be the zero address."
      },
      "name()": {
        "details": "Returns the name of the token."
      },
      "onERC721Received(address,address,uint256,bytes)": {
        "details": "Whenever an {IERC721} `tokenId` token is transferred to this contract via {IERC721-safeTransferFrom} by `operator` from `from`, this function is called. It must return its Solidity selector to confirm the token transfer. If any other value is returned or the interface is not implemented by the recipient, the transfer will be reverted. The selector can be obtained in Solidity with `IERC721.onERC721Received.selector`."
      },
      "owner()": {
        "details": "Returns the address of the current owner."
      },
      "renounceOwnership()": {
        "details": "Leaves the contract without owner. It will not be possible to call `onlyOwner` functions anymore. Can only be called by the current owner. NOTE: Renouncing ownership will leave the contract without an owner, thereby removing any functionality that is only available to the owner."
      },
      "symbol()": {
        "details": "Returns the symbol of the token, usually a shorter version of the name."
      },
      "totalSupply()": {
        "details": "See {IERC20-totalSupply}."
      },
      "transfer(address,uint256)": {
        "details": "See {IERC20-transfer}. Requirements: - `recipient` cannot be the zero address. - the caller must have a balance of at least `amount`."
      },
      "transferFrom(address,address,uint256)": {
        "details": "See {IERC20-transferFrom}. Emits an {Approval} event indicating the updated allowance. This is not required by the EIP. See the note at the beginning of {ERC20}. Requirements: - `sender` and `recipient` cannot be the zero address. - `sender` must have a balance of at least `amount`. - the caller must have allowance for ``sender``'s tokens of at least `amount`."
      },
      "transferOwnership(address)": {
        "details": "Transfers ownership of the contract to a new account (`newOwner`). Can only be called by the current owner."
      }
    },
    "version": 1
  },
  "userdoc": {
    "kind": "user",
    "methods": {},
    "version": 1
  },
  "storageLayout": {
    "storage": [
      {
        "astId": 119,
        "contract": "contracts/Tangelo.sol:Tangelo",
        "label": "_balances",
        "offset": 0,
        "slot": "0",
        "type": "t_mapping(t_address,t_uint256)"
      },
      {
        "astId": 125,
        "contract": "contracts/Tangelo.sol:Tangelo",
        "label": "_allowances",
        "offset": 0,
        "slot": "1",
        "type": "t_mapping(t_address,t_mapping(t_address,t_uint256))"
      },
      {
        "astId": 127,
        "contract": "contracts/Tangelo.sol:Tangelo",
        "label": "_totalSupply",
        "offset": 0,
        "slot": "2",
        "type": "t_uint256"
      },
      {
        "astId": 129,
        "contract": "contracts/Tangelo.sol:Tangelo",
        "label": "_name",
        "offset": 0,
        "slot": "3",
        "type": "t_string_storage"
      },
      {
        "astId": 131,
        "contract": "contracts/Tangelo.sol:Tangelo",
        "label": "_symbol",
        "offset": 0,
        "slot": "4",
        "type": "t_string_storage"
      },
      {
        "astId": 7,
        "contract": "contracts/Tangelo.sol:Tangelo",
        "label": "_owner",
        "offset": 0,
        "slot": "5",
        "type": "t_address"
      },
      {
        "astId": 2615,
        "contract": "contracts/Tangelo.sol:Tangelo",
        "label": "vaultCap",
        "offset": 0,
        "slot": "6",
        "type": "t_uint256"
      },
      {
        "astId": 2618,
        "contract": "contracts/Tangelo.sol:Tangelo",
        "label": "loanDuration",
        "offset": 0,
        "slot": "7",
        "type": "t_uint256"
      },
      {
        "astId": 2621,
        "contract": "contracts/Tangelo.sol:Tangelo",
        "label": "pricePerShare",
        "offset": 0,
        "slot": "8",
        "type": "t_uint256"
      },
      {
        "astId": 2623,
        "contract": "contracts/Tangelo.sol:Tangelo",
        "label": "depositsLocked",
        "offset": 0,
        "slot": "9",
        "type": "t_uint256"
      },
      {
        "astId": 2636,
        "contract": "contracts/Tangelo.sol:Tangelo",
        "label": "collectionLendingPrice",
        "offset": 0,
        "slot": "10",
        "type": "t_mapping(t_address,t_uint256)"
      },
      {
        "astId": 2640,
        "contract": "contracts/Tangelo.sol:Tangelo",
        "label": "collectionInterestRate",
        "offset": 0,
        "slot": "11",
        "type": "t_mapping(t_address,t_uint256)"
      },
      {
        "astId": 2647,
        "contract": "contracts/Tangelo.sol:Tangelo",
        "label": "lockedNFTs",
        "offset": 0,
        "slot": "12",
        "type": "t_mapping(t_address,t_mapping(t_uint256,t_struct(NFTLoan)2632_storage))"
      },
      {
        "astId": 2651,
        "contract": "contracts/Tangelo.sol:Tangelo",
        "label": "outstandingLoans",
        "offset": 0,
        "slot": "13",
        "type": "t_mapping(t_address,t_uint256)"
      },
      {
        "astId": 2655,
        "contract": "contracts/Tangelo.sol:Tangelo",
        "label": "deposits",
        "offset": 0,
        "slot": "14",
        "type": "t_mapping(t_address,t_uint256)"
      },
      {
        "astId": 2658,
        "contract": "contracts/Tangelo.sol:Tangelo",
        "label": "depositors",
        "offset": 0,
        "slot": "15",
        "type": "t_array(t_address)dyn_storage"
      },
      {
        "astId": 2661,
        "contract": "contracts/Tangelo.sol:Tangelo",
        "label": "borrowers",
        "offset": 0,
        "slot": "16",
        "type": "t_array(t_address)dyn_storage"
      },
      {
        "astId": 2664,
        "contract": "contracts/Tangelo.sol:Tangelo",
        "label": "collections",
        "offset": 0,
        "slot": "17",
        "type": "t_array(t_address)dyn_storage"
      },
      {
        "astId": 2666,
        "contract": "contracts/Tangelo.sol:Tangelo",
        "label": "foreclosureContract",
        "offset": 0,
        "slot": "18",
        "type": "t_address"
      }
    ],
    "types": {
      "t_address": {
        "encoding": "inplace",
        "label": "address",
        "numberOfBytes": "20"
      },
      "t_array(t_address)dyn_storage": {
        "base": "t_address",
        "encoding": "dynamic_array",
        "label": "address[]",
        "numberOfBytes": "32"
      },
      "t_mapping(t_address,t_mapping(t_address,t_uint256))": {
        "encoding": "mapping",
        "key": "t_address",
        "label": "mapping(address => mapping(address => uint256))",
        "numberOfBytes": "32",
        "value": "t_mapping(t_address,t_uint256)"
      },
      "t_mapping(t_address,t_mapping(t_uint256,t_struct(NFTLoan)2632_storage))": {
        "encoding": "mapping",
        "key": "t_address",
        "label": "mapping(address => mapping(uint256 => struct Tangelo.NFTLoan))",
        "numberOfBytes": "32",
        "value": "t_mapping(t_uint256,t_struct(NFTLoan)2632_storage)"
      },
      "t_mapping(t_address,t_uint256)": {
        "encoding": "mapping",
        "key": "t_address",
        "label": "mapping(address => uint256)",
        "numberOfBytes": "32",
        "value": "t_uint256"
      },
      "t_mapping(t_uint256,t_struct(NFTLoan)2632_storage)": {
        "encoding": "mapping",
        "key": "t_uint256",
        "label": "mapping(uint256 => struct Tangelo.NFTLoan)",
        "numberOfBytes": "32",
        "value": "t_struct(NFTLoan)2632_storage"
      },
      "t_string_storage": {
        "encoding": "bytes",
        "label": "string",
        "numberOfBytes": "32"
      },
      "t_struct(NFTLoan)2632_storage": {
        "encoding": "inplace",
        "label": "struct Tangelo.NFTLoan",
        "members": [
          {
            "astId": 2625,
            "contract": "contracts/Tangelo.sol:Tangelo",
            "label": "nftOwner",
            "offset": 0,
            "slot": "0",
            "type": "t_address"
          },
          {
            "astId": 2627,
            "contract": "contracts/Tangelo.sol:Tangelo",
            "label": "loanPrincipal",
            "offset": 0,
            "slot": "1",
            "type": "t_uint256"
          },
          {
            "astId": 2629,
            "contract": "contracts/Tangelo.sol:Tangelo",
            "label": "loanInterestAmount",
            "offset": 0,
            "slot": "2",
            "type": "t_uint256"
          },
          {
            "astId": 2631,
            "contract": "contracts/Tangelo.sol:Tangelo",
            "label": "dueDate",
            "offset": 0,
            "slot": "3",
            "type": "t_uint256"
          }
        ],
        "numberOfBytes": "128"
      },
      "t_uint256": {
        "encoding": "inplace",
        "label": "uint256",
        "numberOfBytes": "32"
      }
    }
  }
}