{
  "_format": "hh-sol-artifact-1",
  "contractName": "Tangelo",
  "sourceName": "contracts/Tangelo.sol",
  "abi": [
    {
      "inputs": [],
      "stateMutability": "nonpayable",
      "type": "constructor"
    },
    {
      "anonymous": false,
      "inputs": [
        {
          "indexed": true,
          "internalType": "address",
          "name": "owner",
          "type": "address"
        },
        {
          "indexed": true,
          "internalType": "address",
          "name": "spender",
          "type": "address"
        },
        {
          "indexed": false,
          "internalType": "uint256",
          "name": "value",
          "type": "uint256"
        }
      ],
      "name": "Approval",
      "type": "event"
    },
    {
      "anonymous": false,
      "inputs": [
        {
          "indexed": true,
          "internalType": "address",
          "name": "previousOwner",
          "type": "address"
        },
        {
          "indexed": true,
          "internalType": "address",
          "name": "newOwner",
          "type": "address"
        }
      ],
      "name": "OwnershipTransferred",
      "type": "event"
    },
    {
      "anonymous": false,
      "inputs": [
        {
          "indexed": false,
          "internalType": "address",
          "name": "account",
          "type": "address"
        }
      ],
      "name": "Paused",
      "type": "event"
    },
    {
      "anonymous": false,
      "inputs": [
        {
          "indexed": true,
          "internalType": "address",
          "name": "from",
          "type": "address"
        },
        {
          "indexed": true,
          "internalType": "address",
          "name": "to",
          "type": "address"
        },
        {
          "indexed": false,
          "internalType": "uint256",
          "name": "value",
          "type": "uint256"
        }
      ],
      "name": "Transfer",
      "type": "event"
    },
    {
      "anonymous": false,
      "inputs": [
        {
          "indexed": false,
          "internalType": "address",
          "name": "account",
          "type": "address"
        }
      ],
      "name": "Unpaused",
      "type": "event"
    },
    {
      "inputs": [
        {
          "internalType": "address",
          "name": "owner",
          "type": "address"
        },
        {
          "internalType": "address",
          "name": "spender",
          "type": "address"
        }
      ],
      "name": "allowance",
      "outputs": [
        {
          "internalType": "uint256",
          "name": "",
          "type": "uint256"
        }
      ],
      "stateMutability": "view",
      "type": "function"
    },
    {
      "inputs": [
        {
          "internalType": "address",
          "name": "spender",
          "type": "address"
        },
        {
          "internalType": "uint256",
          "name": "amount",
          "type": "uint256"
        }
      ],
      "name": "approve",
      "outputs": [
        {
          "internalType": "bool",
          "name": "",
          "type": "bool"
        }
      ],
      "stateMutability": "nonpayable",
      "type": "function"
    },
    {
      "inputs": [
        {
          "internalType": "address",
          "name": "account",
          "type": "address"
        }
      ],
      "name": "balanceOf",
      "outputs": [
        {
          "internalType": "uint256",
          "name": "",
          "type": "uint256"
        }
      ],
      "stateMutability": "view",
      "type": "function"
    },
    {
      "inputs": [],
      "name": "decimals",
      "outputs": [
        {
          "internalType": "uint8",
          "name": "",
          "type": "uint8"
        }
      ],
      "stateMutability": "view",
      "type": "function"
    },
    {
      "inputs": [
        {
          "internalType": "address",
          "name": "spender",
          "type": "address"
        },
        {
          "internalType": "uint256",
          "name": "subtractedValue",
          "type": "uint256"
        }
      ],
      "name": "decreaseAllowance",
      "outputs": [
        {
          "internalType": "bool",
          "name": "",
          "type": "bool"
        }
      ],
      "stateMutability": "nonpayable",
      "type": "function"
    },
    {
      "inputs": [],
      "name": "depositFunds",
      "outputs": [],
      "stateMutability": "payable",
      "type": "function"
    },
    {
      "inputs": [],
      "name": "donateToHolders",
      "outputs": [],
      "stateMutability": "payable",
      "type": "function"
    },
    {
      "inputs": [
        {
          "internalType": "address",
          "name": "nftContractAddress",
          "type": "address"
        },
        {
          "internalType": "uint256",
          "name": "tokenId",
          "type": "uint256"
        }
      ],
      "name": "foreclose",
      "outputs": [],
      "stateMutability": "nonpayable",
      "type": "function"
    },
    {
      "inputs": [],
      "name": "getAllDepositors",
      "outputs": [
        {
          "internalType": "address[]",
          "name": "",
          "type": "address[]"
        }
      ],
      "stateMutability": "view",
      "type": "function"
    },
    {
      "inputs": [
        {
          "internalType": "address",
          "name": "addr",
          "type": "address"
        }
      ],
      "name": "getAmountAvailableToWithdraw",
      "outputs": [
        {
          "internalType": "uint256",
          "name": "",
          "type": "uint256"
        }
      ],
      "stateMutability": "view",
      "type": "function"
    },
    {
      "inputs": [
        {
          "internalType": "address",
          "name": "lender",
          "type": "address"
        }
      ],
      "name": "getDepositsForLender",
      "outputs": [
        {
          "internalType": "uint256",
          "name": "",
          "type": "uint256"
        }
      ],
      "stateMutability": "view",
      "type": "function"
    },
    {
      "inputs": [],
      "name": "getForeclosureContract",
      "outputs": [
        {
          "internalType": "address",
          "name": "",
          "type": "address"
        }
      ],
      "stateMutability": "view",
      "type": "function"
    },
    {
      "inputs": [
        {
          "internalType": "address",
          "name": "nftContractAddress",
          "type": "address"
        }
      ],
      "name": "getInterestAmountForCollection",
      "outputs": [
        {
          "internalType": "uint256",
          "name": "",
          "type": "uint256"
        }
      ],
      "stateMutability": "nonpayable",
      "type": "function"
    },
    {
      "inputs": [
        {
          "internalType": "address",
          "name": "collectionAddress",
          "type": "address"
        }
      ],
      "name": "getInterestRateForCollection",
      "outputs": [
        {
          "internalType": "uint256",
          "name": "",
          "type": "uint256"
        }
      ],
      "stateMutability": "view",
      "type": "function"
    },
    {
      "inputs": [
        {
          "internalType": "address",
          "name": "collectionAddress",
          "type": "address"
        }
      ],
      "name": "getLoanAmountForCollection",
      "outputs": [
        {
          "internalType": "uint256",
          "name": "",
          "type": "uint256"
        }
      ],
      "stateMutability": "view",
      "type": "function"
    },
    {
      "inputs": [
        {
          "internalType": "address",
          "name": "nftContractAddress",
          "type": "address"
        },
        {
          "internalType": "uint256",
          "name": "tokenId",
          "type": "uint256"
        }
      ],
      "name": "getLoanAmountForLockedNFT",
      "outputs": [
        {
          "internalType": "uint256",
          "name": "",
          "type": "uint256"
        }
      ],
      "stateMutability": "view",
      "type": "function"
    },
    {
      "inputs": [
        {
          "internalType": "address",
          "name": "nftContractAddress",
          "type": "address"
        },
        {
          "internalType": "uint256",
          "name": "tokenId",
          "type": "uint256"
        }
      ],
      "name": "getLoanDueDateforLockedNFT",
      "outputs": [
        {
          "internalType": "uint256",
          "name": "",
          "type": "uint256"
        }
      ],
      "stateMutability": "view",
      "type": "function"
    },
    {
      "inputs": [
        {
          "internalType": "address",
          "name": "nftContractAddress",
          "type": "address"
        },
        {
          "internalType": "uint256",
          "name": "tokenId",
          "type": "uint256"
        }
      ],
      "name": "getLoanInterestAmountForLockedNFT",
      "outputs": [
        {
          "internalType": "uint256",
          "name": "",
          "type": "uint256"
        }
      ],
      "stateMutability": "view",
      "type": "function"
    },
    {
      "inputs": [
        {
          "internalType": "address",
          "name": "nftContractAddress",
          "type": "address"
        },
        {
          "internalType": "uint256",
          "name": "tokenId",
          "type": "uint256"
        }
      ],
      "name": "getOwnerForLockedNFT",
      "outputs": [
        {
          "internalType": "address",
          "name": "",
          "type": "address"
        }
      ],
      "stateMutability": "view",
      "type": "function"
    },
    {
      "inputs": [],
      "name": "getPricePerShare",
      "outputs": [
        {
          "internalType": "uint256",
          "name": "",
          "type": "uint256"
        }
      ],
      "stateMutability": "view",
      "type": "function"
    },
    {
      "inputs": [],
      "name": "getVaultBalance",
      "outputs": [
        {
          "internalType": "uint256",
          "name": "",
          "type": "uint256"
        }
      ],
      "stateMutability": "view",
      "type": "function"
    },
    {
      "inputs": [],
      "name": "getVaultCap",
      "outputs": [
        {
          "internalType": "uint256",
          "name": "",
          "type": "uint256"
        }
      ],
      "stateMutability": "view",
      "type": "function"
    },
    {
      "inputs": [],
      "name": "getWhitelistedCollections",
      "outputs": [
        {
          "internalType": "address[]",
          "name": "",
          "type": "address[]"
        }
      ],
      "stateMutability": "view",
      "type": "function"
    },
    {
      "inputs": [
        {
          "internalType": "address",
          "name": "spender",
          "type": "address"
        },
        {
          "internalType": "uint256",
          "name": "addedValue",
          "type": "uint256"
        }
      ],
      "name": "increaseAllowance",
      "outputs": [
        {
          "internalType": "bool",
          "name": "",
          "type": "bool"
        }
      ],
      "stateMutability": "nonpayable",
      "type": "function"
    },
    {
      "inputs": [],
      "name": "name",
      "outputs": [
        {
          "internalType": "string",
          "name": "",
          "type": "string"
        }
      ],
      "stateMutability": "view",
      "type": "function"
    },
    {
      "inputs": [
        {
          "internalType": "address",
          "name": "operator",
          "type": "address"
        },
        {
          "internalType": "address",
          "name": "from",
          "type": "address"
        },
        {
          "internalType": "uint256",
          "name": "tokenId",
          "type": "uint256"
        },
        {
          "internalType": "bytes",
          "name": "data",
          "type": "bytes"
        }
      ],
      "name": "onERC721Received",
      "outputs": [
        {
          "internalType": "bytes4",
          "name": "",
          "type": "bytes4"
        }
      ],
      "stateMutability": "nonpayable",
      "type": "function"
    },
    {
      "inputs": [],
      "name": "owner",
      "outputs": [
        {
          "internalType": "address",
          "name": "",
          "type": "address"
        }
      ],
      "stateMutability": "view",
      "type": "function"
    },
    {
      "inputs": [],
      "name": "paused",
      "outputs": [
        {
          "internalType": "bool",
          "name": "",
          "type": "bool"
        }
      ],
      "stateMutability": "view",
      "type": "function"
    },
    {
      "inputs": [],
      "name": "renounceOwnership",
      "outputs": [],
      "stateMutability": "nonpayable",
      "type": "function"
    },
    {
      "inputs": [
        {
          "internalType": "address",
          "name": "nftContractAddress",
          "type": "address"
        },
        {
          "internalType": "uint256",
          "name": "tokenId",
          "type": "uint256"
        }
      ],
      "name": "repayLoanForNFT",
      "outputs": [],
      "stateMutability": "payable",
      "type": "function"
    },
    {
      "inputs": [
        {
          "internalType": "uint256",
          "name": "cap",
          "type": "uint256"
        }
      ],
      "name": "setCap",
      "outputs": [],
      "stateMutability": "nonpayable",
      "type": "function"
    },
    {
      "inputs": [
        {
          "internalType": "address",
          "name": "foreclosureContractAddress",
          "type": "address"
        }
      ],
      "name": "setForeclosureContract",
      "outputs": [],
      "stateMutability": "nonpayable",
      "type": "function"
    },
    {
      "inputs": [
        {
          "internalType": "uint256",
          "name": "duration",
          "type": "uint256"
        }
      ],
      "name": "setLoanDuration",
      "outputs": [],
      "stateMutability": "nonpayable",
      "type": "function"
    },
    {
      "inputs": [
        {
          "internalType": "uint256",
          "name": "price",
          "type": "uint256"
        }
      ],
      "name": "setPricePerShare",
      "outputs": [],
      "stateMutability": "nonpayable",
      "type": "function"
    },
    {
      "inputs": [],
      "name": "symbol",
      "outputs": [
        {
          "internalType": "string",
          "name": "",
          "type": "string"
        }
      ],
      "stateMutability": "view",
      "type": "function"
    },
    {
      "inputs": [
        {
          "internalType": "address",
          "name": "nftContractAddress",
          "type": "address"
        },
        {
          "internalType": "uint256",
          "name": "tokenId",
          "type": "uint256"
        }
      ],
      "name": "takeLoan",
      "outputs": [],
      "stateMutability": "nonpayable",
      "type": "function"
    },
    {
      "inputs": [],
      "name": "totalSupply",
      "outputs": [
        {
          "internalType": "uint256",
          "name": "",
          "type": "uint256"
        }
      ],
      "stateMutability": "view",
      "type": "function"
    },
    {
      "inputs": [
        {
          "internalType": "address",
          "name": "recipient",
          "type": "address"
        },
        {
          "internalType": "uint256",
          "name": "amount",
          "type": "uint256"
        }
      ],
      "name": "transfer",
      "outputs": [
        {
          "internalType": "bool",
          "name": "",
          "type": "bool"
        }
      ],
      "stateMutability": "nonpayable",
      "type": "function"
    },
    {
      "inputs": [
        {
          "internalType": "address",
          "name": "sender",
          "type": "address"
        },
        {
          "internalType": "address",
          "name": "recipient",
          "type": "address"
        },
        {
          "internalType": "uint256",
          "name": "amount",
          "type": "uint256"
        }
      ],
      "name": "transferFrom",
      "outputs": [
        {
          "internalType": "bool",
          "name": "",
          "type": "bool"
        }
      ],
      "stateMutability": "nonpayable",
      "type": "function"
    },
    {
      "inputs": [
        {
          "internalType": "address",
          "name": "newOwner",
          "type": "address"
        }
      ],
      "name": "transferOwnership",
      "outputs": [],
      "stateMutability": "nonpayable",
      "type": "function"
    },
    {
      "inputs": [
        {
          "internalType": "address",
          "name": "collectionAddress",
          "type": "address"
        },
        {
          "internalType": "uint256",
          "name": "lendingPrice",
          "type": "uint256"
        },
        {
          "internalType": "uint256",
          "name": "interestRatePercent",
          "type": "uint256"
        }
      ],
      "name": "whitelistCollection",
      "outputs": [],
      "stateMutability": "nonpayable",
      "type": "function"
    },
    {
      "inputs": [
        {
          "internalType": "uint256",
          "name": "amountRequested",
          "type": "uint256"
        }
      ],
      "name": "withdrawFunds",
      "outputs": [],
      "stateMutability": "nonpayable",
      "type": "function"
    }
  ],
  "bytecode": "0x6080604052681b1ae4d6e2ef50000060065562093a80600755670de0b6b3a7640000600855600a6009553480156200003657600080fd5b5060405180604001604052806009815260200168054414e47454c4f4c560bc1b815250604051806040016040528060038152602001620544c560ec1b81525081600390805190602001906200008d92919062000129565b508051620000a390600490602084019062000129565b505050620000c0620000ba620000d360201b60201c565b620000d7565b6005805460ff60a01b191690556200020c565b3390565b600580546001600160a01b038381166001600160a01b0319831681179093556040519116919082907f8be0079c531659141344cd1fd0a4f28419497f9722a3daafe3b4186f6b6457e090600090a35050565b8280546200013790620001cf565b90600052602060002090601f0160209004810192826200015b5760008555620001a6565b82601f106200017657805160ff1916838001178555620001a6565b82800160010185558215620001a6579182015b82811115620001a657825182559160200191906001019062000189565b50620001b4929150620001b8565b5090565b5b80821115620001b45760008155600101620001b9565b600281046001821680620001e457607f821691505b602082108114156200020657634e487b7160e01b600052602260045260246000fd5b50919050565b6124e1806200021c6000396000f3fe6080604052600436106102515760003560e01c8063715018a6116101395780639f8a3934116100b6578063dd62ed3e1161007a578063dd62ed3e146106a0578063e2c41dbc146106c0578063e7cf0b4a146106c8578063ed12e8ef146106e8578063f2fde38b146106fd578063fa67e7ff1461071d57610251565b80639f8a39341461060b578063a457c2d714610620578063a9059cbb14610640578063b824a0d814610660578063d2780fa01461068057610251565b8063905adcdd116100fd578063905adcdd1461059957806395d89b41146105b9578063964ad6ed146105ce5780639da31417146105d65780639e358be1146105eb57610251565b8063715018a61461050d5780637c3fd019146105225780638b0279d2146105425780638cce66be146105645780638da5cb5b1461058457610251565b80632ac14960116101d257806347786d371161019657806347786d371461045857806353843832146104785780635c975abb1461049857806361e6027d146104ad57806370a08231146104cd57806370f447af146104ed57610251565b80632ac14960146103c1578063313ce567146103e15780633506b59a1461040357806339509351146104235780633d68175c1461044357610251565b8063155dd5ee11610219578063155dd5ee1461032a5780631784bab61461034a57806318160ddd1461036c57806322a4dc851461038157806323b872dd146103a157610251565b806306fdde0314610256578063095ea7b3146102815780630f8cc308146102ae578063118c9a07146102db578063150b7a02146102fd575b600080fd5b34801561026257600080fd5b5061026b610730565b6040516102789190611d7b565b60405180910390f35b34801561028d57600080fd5b506102a161029c366004611c63565b6107c2565b6040516102789190611d5b565b3480156102ba57600080fd5b506102ce6102c9366004611c63565b6107df565b60405161027891906123d5565b3480156102e757600080fd5b506102fb6102f6366004611cbe565b61080a565b005b34801561030957600080fd5b5061031d610318366004611bcd565b610857565b6040516102789190611d66565b34801561033657600080fd5b506102fb610345366004611cbe565b610881565b34801561035657600080fd5b5061035f610978565b6040516102789190611cd6565b34801561037857600080fd5b506102ce610987565b34801561038d57600080fd5b506102ce61039c366004611b3f565b61098d565b3480156103ad57600080fd5b506102a16103bc366004611b92565b6109ac565b3480156103cd57600080fd5b506102fb6103dc366004611b3f565b610a3c565b3480156103ed57600080fd5b506103f6610a9d565b60405161027891906123de565b34801561040f57600080fd5b506102ce61041e366004611b3f565b610aa2565b34801561042f57600080fd5b506102a161043e366004611c63565b610abd565b34801561044f57600080fd5b506102ce610b11565b34801561046457600080fd5b506102fb610473366004611cbe565b610b17565b34801561048457600080fd5b506102ce610493366004611b3f565b610b5b565b3480156104a457600080fd5b506102a1610b9b565b3480156104b957600080fd5b506102ce6104c8366004611c63565b610bab565b3480156104d957600080fd5b506102ce6104e8366004611b3f565b610bd6565b3480156104f957600080fd5b506102ce610508366004611b3f565b610bf1565b34801561051957600080fd5b506102fb610c0c565b34801561052e57600080fd5b506102ce61053d366004611c63565b610c57565b34801561054e57600080fd5b50610557610c82565b6040516102789190611d0e565b34801561057057600080fd5b506102fb61057f366004611c8c565b610ce3565b34801561059057600080fd5b5061035f610d8a565b3480156105a557600080fd5b506102fb6105b4366004611c63565b610d99565b3480156105c557600080fd5b5061026b610f6d565b6102fb610f7c565b3480156105e257600080fd5b50610557610fe9565b3480156105f757600080fd5b506102fb610606366004611c63565b611049565b34801561061757600080fd5b506102ce611299565b34801561062c57600080fd5b506102a161063b366004611c63565b61129f565b34801561064c57600080fd5b506102a161065b366004611c63565b611318565b34801561066c57600080fd5b5061035f61067b366004611c63565b61132c565b34801561068c57600080fd5b506102fb61069b366004611cbe565b611354565b3480156106ac57600080fd5b506102ce6106bb366004611b60565b611398565b6102fb6113c3565b3480156106d457600080fd5b506102ce6106e3366004611b3f565b6114cb565b3480156106f457600080fd5b506102ce6114e2565b34801561070957600080fd5b506102fb610718366004611b3f565b6114e8565b6102fb61072b366004611c63565b611556565b60606003805461073f9061245a565b80601f016020809104026020016040519081016040528092919081815260200182805461076b9061245a565b80156107b85780601f1061078d576101008083540402835291602001916107b8565b820191906000526020600020905b81548152906001019060200180831161079b57829003601f168201915b5050505050905090565b60006107d66107cf61173c565b8484611740565b50600192915050565b6001600160a01b03919091166000908152600e60209081526040808320938352929052206003015490565b61081261173c565b6001600160a01b0316610823610d8a565b6001600160a01b0316146108525760405162461bcd60e51b815260040161084990612155565b60405180910390fd5b600855565b7f150b7a023d4804d13e8c85fb27262cb750cf6ba9f9dd3bb30d90f482ceeb4b1f95945050505050565b610889610b9b565b156108a65760405162461bcd60e51b8152600401610849906120e3565b60006108b1336114cb565b9050808211156108d35760405162461bcd60e51b815260040161084990611fc2565b600b548211156108f55760405162461bcd60e51b81526004016108499061203f565b60085460009061090d84670de0b6b3a7640000612424565b6109179190612404565b905061092333826117f4565b82600a546109319190612443565b600a55600b54610942908490612443565b600b55604051339084156108fc029085906000818181858888f19350505050158015610972573d6000803e3d6000fd5b50505050565b6014546001600160a01b031690565b60025490565b6001600160a01b0381166000908152600d60205260409020545b919050565b60006109b98484846118e6565b6001600160a01b0384166000908152600160205260408120816109da61173c565b6001600160a01b03166001600160a01b0316815260200190815260200160002054905082811015610a1d5760405162461bcd60e51b81526004016108499061210d565b610a3185610a2961173c565b858403611740565b506001949350505050565b610a4461173c565b6001600160a01b0316610a55610d8a565b6001600160a01b031614610a7b5760405162461bcd60e51b815260040161084990612155565b601480546001600160a01b0319166001600160a01b0392909216919091179055565b601290565b6001600160a01b03166000908152600c602052604090205490565b60006107d6610aca61173c565b848460016000610ad861173c565b6001600160a01b03908116825260208083019390935260409182016000908120918b1681529252902054610b0c91906123ec565b611740565b60085490565b610b1f61173c565b6001600160a01b0316610b30610d8a565b6001600160a01b031614610b565760405162461bcd60e51b815260040161084990612155565b600655565b6001600160a01b0381166000908152600d602052604081205461271090610b8184610aa2565b610b8b9190612424565b610b959190612404565b92915050565b600554600160a01b900460ff1690565b6001600160a01b03919091166000908152600e60209081526040808320938352929052206002015490565b6001600160a01b031660009081526020819052604090205490565b6001600160a01b031660009081526010602052604090205490565b610c1461173c565b6001600160a01b0316610c25610d8a565b6001600160a01b031614610c4b5760405162461bcd60e51b815260040161084990612155565b610c556000611a0a565b565b6001600160a01b03919091166000908152600e60209081526040808320938352929052206001015490565b606060138054806020026020016040519081016040528092919081815260200182805480156107b857602002820191906000526020600020905b81546001600160a01b03168152600190910190602001808311610cbc575050505050905090565b610ceb61173c565b6001600160a01b0316610cfc610d8a565b6001600160a01b031614610d225760405162461bcd60e51b815260040161084990612155565b60138054600181019091557f66de8ffda797e3de9c05e8fc57b3bf0ec28a930d40b0d285d93c06501cf6a0900180546001600160a01b039094166001600160a01b0319909416841790556000928352600c6020908152604080852093909355600d9052912055565b6005546001600160a01b031690565b610da161173c565b6001600160a01b0316610db2610d8a565b6001600160a01b031614610dd85760405162461bcd60e51b815260040161084990612155565b610de0610b9b565b15610dfd5760405162461bcd60e51b8152600401610849906120e3565b6001600160a01b038083166000908152600e60209081526040808320858452808352818420825160808101845281549096168652600181015486850152600281015492860192909252600390910154606085018190529285905290524211610e775760405162461bcd60e51b815260040161084990611e11565b601454604051632142170760e11b815284916001600160a01b03808416926342842e0e92610eae9230929116908890600401611cea565b600060405180830381600087803b158015610ec857600080fd5b505af1158015610edc573d6000803e3d6000fd5b50505050600a548260200151600854610ef59190612424565b610eff9190612404565b600854610f0c9190612443565b6008556020820151600a54610f219190612443565b600a5550506001600160a01b039091166000908152600e6020908152604080832093835292905290812080546001600160a01b0319168155600181018290556002810182905560030155565b60606004805461073f9061245a565b610f84610b9b565b15610fa15760405162461bcd60e51b8152600401610849906120e3565b60003411610fc15760405162461bcd60e51b815260040161084990612266565b600a5434600854610fd29190612424565b610fdc9190612404565b60085461085291906123ec565b606060118054806020026020016040519081016040528092919081815260200182805480156107b8576020028201919060005260206000209081546001600160a01b03168152600190910190602001808311610cbc575050505050905090565b611051610b9b565b1561106e5760405162461bcd60e51b8152600401610849906120e3565b6001600160a01b0382166000908152600c602052604090205482906110a55760405162461bcd60e51b815260040161084990611f8d565b60006110b084610aa2565b905060006110bd85610b5b565b9050600b548211156110e15760405162461bcd60e51b81526004016108499061230d565b6064600954600a546110f39190612424565b6110fd9190612404565b82600b5461110b9190612443565b116111285760405162461bcd60e51b815260040161084990612210565b604051632142170760e11b81526001600160a01b038416906342842e0e9061115890339030908990600401611cea565b600060405180830381600087803b15801561117257600080fd5b505af1158015611186573d6000803e3d6000fd5b505050506040518060800160405280336001600160a01b03168152602001838152602001828152602001600754426111be91906123ec565b90526001600160a01b038087166000908152600e6020908152604080832089845282528083208551815495166001600160a01b03199586161781559185015160018084019190915590850151600283015560609094015160039091015560128054938401815590527fbb8a6a4669ba250d26cd7a459eca9d215f8307e33aebe50379bc5a3617ec3444909101805490911633179055600b54611261908390612443565b600b55604051339083156108fc029084906000818181858888f19350505050158015611291573d6000803e3d6000fd5b505050505050565b60065490565b600080600160006112ae61173c565b6001600160a01b03908116825260208083019390935260409182016000908120918816815292529020549050828110156112fa5760405162461bcd60e51b815260040161084990612359565b61130e61130561173c565b85858403611740565b5060019392505050565b60006107d661132561173c565b84846118e6565b6001600160a01b039182166000908152600e6020908152604080832093835292905220541690565b61135c61173c565b6001600160a01b031661136d610d8a565b6001600160a01b0316146113935760405162461bcd60e51b815260040161084990612155565b600755565b6001600160a01b03918216600090815260016020908152604080832093909416825291909152205490565b6113cb610b9b565b156113e85760405162461bcd60e51b8152600401610849906120e3565b600034116114085760405162461bcd60e51b8152600401610849906120ac565b600654600a5461141890346123ec565b11156114365760405162461bcd60e51b8152600401610849906122e1565b601180546001810182556000919091527f31ecc21a745e3968a04e9570e4425bc18fa8019c68028196b546d1669c200c680180546001600160a01b03191633179055600a546114869034906123ec565b600a55600b546114979034906123ec565b600b556008546000906114b234670de0b6b3a7640000612424565b6114bc9190612404565b90506114c83382611a5c565b50565b6000670de0b6b3a7640000600854610b8184610bd6565b600a5490565b6114f061173c565b6001600160a01b0316611501610d8a565b6001600160a01b0316146115275760405162461bcd60e51b815260040161084990612155565b6001600160a01b03811661154d5760405162461bcd60e51b815260040161084990611eb8565b6114c881611a0a565b61155e610b9b565b1561157b5760405162461bcd60e51b8152600401610849906120e3565b6001600160a01b038083166000908152600e6020908152604080832085845282529182902082516080810184528154909416808552600182015492850192909252600281015492840192909252600390910154606083015283919033146115f45760405162461bcd60e51b815260040161084990611f40565b8060400151816020015161160891906123ec565b34146116265760405162461bcd60e51b815260040161084990611e81565b600a54816040015160085461163b9190612424565b6116459190612404565b60085461165291906123ec565b6008556040810151600a5461166791906123ec565b600a5560408101516020820151600b5461168191906123ec565b61168b91906123ec565b600b55604051632142170760e11b81526001600160a01b038316906342842e0e906116be90309033908890600401611cea565b600060405180830381600087803b1580156116d857600080fd5b505af11580156116ec573d6000803e3d6000fd5b5050506001600160a01b039094166000908152600e6020908152604080832095835294905292832080546001600160a01b0319168155600181018490556002810184905560030192909255505050565b3390565b6001600160a01b0383166117665760405162461bcd60e51b81526004016108499061229d565b6001600160a01b03821661178c5760405162461bcd60e51b815260040161084990611efe565b6001600160a01b0380841660008181526001602090815260408083209487168084529490915290819020849055517f8c5be1e5ebec7d5bd14f71427d1e84f3dd0314c0f7b2291e5b200ac8c7c3b925906117e79085906123d5565b60405180910390a3505050565b6001600160a01b03821661181a5760405162461bcd60e51b81526004016108499061218a565b611826826000836118e1565b6001600160a01b0382166000908152602081905260409020548181101561185f5760405162461bcd60e51b815260040161084990611e3f565b6001600160a01b038316600090815260208190526040812083830390556002805484929061188e908490612443565b90915550506040516000906001600160a01b038516907fddf252ad1be2c89b69c2b068fc378daa952ba7f163c4a11628f55a4df523b3ef906118d19086906123d5565b60405180910390a36118e1836000845b505050565b6001600160a01b03831661190c5760405162461bcd60e51b8152600401610849906121cb565b6001600160a01b0382166119325760405162461bcd60e51b815260040161084990611dce565b61193d8383836118e1565b6001600160a01b038316600090815260208190526040902054818110156119765760405162461bcd60e51b815260040161084990611ff9565b6001600160a01b038085166000908152602081905260408082208585039055918516815290812080548492906119ad9084906123ec565b92505081905550826001600160a01b0316846001600160a01b03167fddf252ad1be2c89b69c2b068fc378daa952ba7f163c4a11628f55a4df523b3ef846040516119f791906123d5565b60405180910390a36109728484846118e1565b600580546001600160a01b038381166001600160a01b0319831681179093556040519116919082907f8be0079c531659141344cd1fd0a4f28419497f9722a3daafe3b4186f6b6457e090600090a35050565b6001600160a01b038216611a825760405162461bcd60e51b81526004016108499061239e565b611a8e600083836118e1565b8060026000828254611aa091906123ec565b90915550506001600160a01b03821660009081526020819052604081208054839290611acd9084906123ec565b90915550506040516001600160a01b038316906000907fddf252ad1be2c89b69c2b068fc378daa952ba7f163c4a11628f55a4df523b3ef90611b109085906123d5565b60405180910390a3611b24600083836118e1565b5050565b80356001600160a01b03811681146109a757600080fd5b600060208284031215611b50578081fd5b611b5982611b28565b9392505050565b60008060408385031215611b72578081fd5b611b7b83611b28565b9150611b8960208401611b28565b90509250929050565b600080600060608486031215611ba6578081fd5b611baf84611b28565b9250611bbd60208501611b28565b9150604084013590509250925092565b600080600080600060808688031215611be4578081fd5b611bed86611b28565b9450611bfb60208701611b28565b935060408601359250606086013567ffffffffffffffff80821115611c1e578283fd5b818801915088601f830112611c31578283fd5b813581811115611c3f578384fd5b896020828501011115611c50578384fd5b9699959850939650602001949392505050565b60008060408385031215611c75578182fd5b611c7e83611b28565b946020939093013593505050565b600080600060608486031215611ca0578283fd5b611ca984611b28565b95602085013595506040909401359392505050565b600060208284031215611ccf578081fd5b5035919050565b6001600160a01b0391909116815260200190565b6001600160a01b039384168152919092166020820152604081019190915260600190565b6020808252825182820181905260009190848201906040850190845b81811015611d4f5783516001600160a01b031683529284019291840191600101611d2a565b50909695505050505050565b901515815260200190565b6001600160e01b031991909116815260200190565b6000602080835283518082850152825b81811015611da757858101830151858201604001528201611d8b565b81811115611db85783604083870101525b50601f01601f1916929092016040019392505050565b60208082526023908201527f45524332303a207472616e7366657220746f20746865207a65726f206164647260408201526265737360e81b606082015260800190565b60208082526014908201527310d85b9b9bdd08199bdc9958db1bdcd9481e595d60621b604082015260600190565b60208082526022908201527f45524332303a206275726e20616d6f756e7420657863656564732062616c616e604082015261636560f01b606082015260800190565b60208082526017908201527f53656e642074686520636f727265637420616d6f756e74000000000000000000604082015260600190565b60208082526026908201527f4f776e61626c653a206e6577206f776e657220697320746865207a65726f206160408201526564647265737360d01b606082015260800190565b60208082526022908201527f45524332303a20617070726f766520746f20746865207a65726f206164647265604082015261737360f01b606082015260800190565b6020808252602d908201527f43616c6c6572206d75737420626520746865206f6e652077686f206465706f7360408201526c1a5d1959081d1a1a5cc8139195609a1b606082015260800190565b6020808252818101527f4e465420636f6c6c656374696f6e206e6f7420737570706f7274656420796574604082015260600190565b6020808252601c908201527f4e6f7420656e6f7567682066756e647320746f20776974686472617700000000604082015260600190565b60208082526026908201527f45524332303a207472616e7366657220616d6f756e7420657863656564732062604082015265616c616e636560d01b606082015260800190565b60208082526047908201527f5661756c74206361706974616c206973206465706c6f79656420616e6420313060408201527f2520776974686472617720616c6c6f636174696f6e2077617320616c726561646060820152663c903a30b5b2b760c91b608082015260a00190565b6020808252601c908201527f4d757374206465706f73697420706f73697469766520616d6f756e7400000000604082015260600190565b60208082526010908201526f14185d5cd8589b194e881c185d5cd95960821b604082015260600190565b60208082526028908201527f45524332303a207472616e7366657220616d6f756e74206578636565647320616040820152676c6c6f77616e636560c01b606082015260800190565b6020808252818101527f4f776e61626c653a2063616c6c6572206973206e6f7420746865206f776e6572604082015260600190565b60208082526021908201527f45524332303a206275726e2066726f6d20746865207a65726f206164647265736040820152607360f81b606082015260800190565b60208082526025908201527f45524332303a207472616e736665722066726f6d20746865207a65726f206164604082015264647265737360d81b606082015260800190565b60208082526036908201527f5472616e736665722072656475636573207661756c742062616c616e63652062604082015275656c6f7720776974687264726177207265736572766560501b606082015260800190565b6020808252601b908201527f4d75737420646f6e61746520706f73697469766520616d6f756e740000000000604082015260600190565b60208082526024908201527f45524332303a20617070726f76652066726f6d20746865207a65726f206164646040820152637265737360e01b606082015260800190565b60208082526012908201527115985d5b1d0818d85c08195e18d95959195960721b604082015260600190565b6020808252602c908201527f4e6f7420656e6f7567682066756e647320696e207661756c7420746f20636f7660408201526b32b9103a3434b9903637b0b760a11b606082015260800190565b60208082526025908201527f45524332303a2064656372656173656420616c6c6f77616e63652062656c6f77604082015264207a65726f60d81b606082015260800190565b6020808252601f908201527f45524332303a206d696e7420746f20746865207a65726f206164647265737300604082015260600190565b90815260200190565b60ff91909116815260200190565b600082198211156123ff576123ff612495565b500190565b60008261241f57634e487b7160e01b81526012600452602481fd5b500490565b600081600019048311821515161561243e5761243e612495565b500290565b60008282101561245557612455612495565b500390565b60028104600182168061246e57607f821691505b6020821081141561248f57634e487b7160e01b600052602260045260246000fd5b50919050565b634e487b7160e01b600052601160045260246000fdfea26469706673582212209a18eccb865cbdf3521be80058ca448e127270cc215a59f8d1a3f626d6761a3364736f6c63430008000033",
  "linkReferences": {},
  "deployedLinkReferences": {}
}