{
  "address": "0xe7f1725E7734CE288F8367e1Bb143E90bb3F0512",
  "abi": [
    {
      "inputs": [],
      "stateMutability": "nonpayable",
      "type": "constructor"
    },
    {
      "anonymous": false,
      "inputs": [
        {
          "indexed": true,
          "internalType": "address",
          "name": "owner",
          "type": "address"
        },
        {
          "indexed": true,
          "internalType": "address",
          "name": "spender",
          "type": "address"
        },
        {
          "indexed": false,
          "internalType": "uint256",
          "name": "value",
          "type": "uint256"
        }
      ],
      "name": "Approval",
      "type": "event"
    },
    {
      "anonymous": false,
      "inputs": [
        {
          "indexed": true,
          "internalType": "address",
          "name": "previousOwner",
          "type": "address"
        },
        {
          "indexed": true,
          "internalType": "address",
          "name": "newOwner",
          "type": "address"
        }
      ],
      "name": "OwnershipTransferred",
      "type": "event"
    },
    {
      "anonymous": false,
      "inputs": [
        {
          "indexed": false,
          "internalType": "address",
          "name": "account",
          "type": "address"
        }
      ],
      "name": "Paused",
      "type": "event"
    },
    {
      "anonymous": false,
      "inputs": [
        {
          "indexed": true,
          "internalType": "address",
          "name": "from",
          "type": "address"
        },
        {
          "indexed": true,
          "internalType": "address",
          "name": "to",
          "type": "address"
        },
        {
          "indexed": false,
          "internalType": "uint256",
          "name": "value",
          "type": "uint256"
        }
      ],
      "name": "Transfer",
      "type": "event"
    },
    {
      "anonymous": false,
      "inputs": [
        {
          "indexed": false,
          "internalType": "address",
          "name": "account",
          "type": "address"
        }
      ],
      "name": "Unpaused",
      "type": "event"
    },
    {
      "inputs": [
        {
          "internalType": "address",
          "name": "owner",
          "type": "address"
        },
        {
          "internalType": "address",
          "name": "spender",
          "type": "address"
        }
      ],
      "name": "allowance",
      "outputs": [
        {
          "internalType": "uint256",
          "name": "",
          "type": "uint256"
        }
      ],
      "stateMutability": "view",
      "type": "function"
    },
    {
      "inputs": [
        {
          "internalType": "address",
          "name": "spender",
          "type": "address"
        },
        {
          "internalType": "uint256",
          "name": "amount",
          "type": "uint256"
        }
      ],
      "name": "approve",
      "outputs": [
        {
          "internalType": "bool",
          "name": "",
          "type": "bool"
        }
      ],
      "stateMutability": "nonpayable",
      "type": "function"
    },
    {
      "inputs": [
        {
          "internalType": "address",
          "name": "account",
          "type": "address"
        }
      ],
      "name": "balanceOf",
      "outputs": [
        {
          "internalType": "uint256",
          "name": "",
          "type": "uint256"
        }
      ],
      "stateMutability": "view",
      "type": "function"
    },
    {
      "inputs": [],
      "name": "decimals",
      "outputs": [
        {
          "internalType": "uint8",
          "name": "",
          "type": "uint8"
        }
      ],
      "stateMutability": "view",
      "type": "function"
    },
    {
      "inputs": [
        {
          "internalType": "address",
          "name": "spender",
          "type": "address"
        },
        {
          "internalType": "uint256",
          "name": "subtractedValue",
          "type": "uint256"
        }
      ],
      "name": "decreaseAllowance",
      "outputs": [
        {
          "internalType": "bool",
          "name": "",
          "type": "bool"
        }
      ],
      "stateMutability": "nonpayable",
      "type": "function"
    },
    {
      "inputs": [],
      "name": "depositFunds",
      "outputs": [],
      "stateMutability": "payable",
      "type": "function"
    },
    {
      "inputs": [],
      "name": "donateToHolders",
      "outputs": [],
      "stateMutability": "payable",
      "type": "function"
    },
    {
      "inputs": [
        {
          "internalType": "address",
          "name": "nftContractAddress",
          "type": "address"
        },
        {
          "internalType": "uint256",
          "name": "tokenId",
          "type": "uint256"
        }
      ],
      "name": "foreclose",
      "outputs": [],
      "stateMutability": "nonpayable",
      "type": "function"
    },
    {
      "inputs": [],
      "name": "getAllDepositors",
      "outputs": [
        {
          "internalType": "address[]",
          "name": "",
          "type": "address[]"
        }
      ],
      "stateMutability": "view",
      "type": "function"
    },
    {
      "inputs": [
        {
          "internalType": "address",
          "name": "addr",
          "type": "address"
        }
      ],
      "name": "getAmountAvailableToWithdraw",
      "outputs": [
        {
          "internalType": "uint256",
          "name": "",
          "type": "uint256"
        }
      ],
      "stateMutability": "view",
      "type": "function"
    },
    {
      "inputs": [
        {
          "internalType": "address",
          "name": "lender",
          "type": "address"
        }
      ],
      "name": "getDepositsForLender",
      "outputs": [
        {
          "internalType": "uint256",
          "name": "",
          "type": "uint256"
        }
      ],
      "stateMutability": "view",
      "type": "function"
    },
    {
      "inputs": [
        {
          "internalType": "address",
          "name": "nftContractAddress",
          "type": "address"
        }
      ],
      "name": "getInterestAmountForCollection",
      "outputs": [
        {
          "internalType": "uint256",
          "name": "",
          "type": "uint256"
        }
      ],
      "stateMutability": "nonpayable",
      "type": "function"
    },
    {
      "inputs": [
        {
          "internalType": "address",
          "name": "collectionAddress",
          "type": "address"
        }
      ],
      "name": "getInterestRateForCollection",
      "outputs": [
        {
          "internalType": "uint256",
          "name": "",
          "type": "uint256"
        }
      ],
      "stateMutability": "view",
      "type": "function"
    },
    {
      "inputs": [
        {
          "internalType": "address",
          "name": "collectionAddress",
          "type": "address"
        }
      ],
      "name": "getLoanAmountForCollection",
      "outputs": [
        {
          "internalType": "uint256",
          "name": "",
          "type": "uint256"
        }
      ],
      "stateMutability": "view",
      "type": "function"
    },
    {
      "inputs": [
        {
          "internalType": "address",
          "name": "nftContractAddress",
          "type": "address"
        },
        {
          "internalType": "uint256",
          "name": "tokenId",
          "type": "uint256"
        }
      ],
      "name": "getLoanAmountForLockedNFT",
      "outputs": [
        {
          "internalType": "uint256",
          "name": "",
          "type": "uint256"
        }
      ],
      "stateMutability": "view",
      "type": "function"
    },
    {
      "inputs": [
        {
          "internalType": "address",
          "name": "nftContractAddress",
          "type": "address"
        },
        {
          "internalType": "uint256",
          "name": "tokenId",
          "type": "uint256"
        }
      ],
      "name": "getLoanDueDateforLockedNFT",
      "outputs": [
        {
          "internalType": "uint256",
          "name": "",
          "type": "uint256"
        }
      ],
      "stateMutability": "view",
      "type": "function"
    },
    {
      "inputs": [
        {
          "internalType": "address",
          "name": "nftContractAddress",
          "type": "address"
        },
        {
          "internalType": "uint256",
          "name": "tokenId",
          "type": "uint256"
        }
      ],
      "name": "getLoanInterestAmountForLockedNFT",
      "outputs": [
        {
          "internalType": "uint256",
          "name": "",
          "type": "uint256"
        }
      ],
      "stateMutability": "view",
      "type": "function"
    },
    {
      "inputs": [
        {
          "internalType": "address",
          "name": "nftContractAddress",
          "type": "address"
        },
        {
          "internalType": "uint256",
          "name": "tokenId",
          "type": "uint256"
        }
      ],
      "name": "getOwnerForLockedNFT",
      "outputs": [
        {
          "internalType": "address",
          "name": "",
          "type": "address"
        }
      ],
      "stateMutability": "view",
      "type": "function"
    },
    {
      "inputs": [],
      "name": "getPricePerShare",
      "outputs": [
        {
          "internalType": "uint256",
          "name": "",
          "type": "uint256"
        }
      ],
      "stateMutability": "view",
      "type": "function"
    },
    {
      "inputs": [],
      "name": "getVaultBalance",
      "outputs": [
        {
          "internalType": "uint256",
          "name": "",
          "type": "uint256"
        }
      ],
      "stateMutability": "view",
      "type": "function"
    },
    {
      "inputs": [],
      "name": "getVaultCap",
      "outputs": [
        {
          "internalType": "uint256",
          "name": "",
          "type": "uint256"
        }
      ],
      "stateMutability": "view",
      "type": "function"
    },
    {
      "inputs": [],
      "name": "getWhitelistedCollections",
      "outputs": [
        {
          "internalType": "address[]",
          "name": "",
          "type": "address[]"
        }
      ],
      "stateMutability": "view",
      "type": "function"
    },
    {
      "inputs": [
        {
          "internalType": "address",
          "name": "spender",
          "type": "address"
        },
        {
          "internalType": "uint256",
          "name": "addedValue",
          "type": "uint256"
        }
      ],
      "name": "increaseAllowance",
      "outputs": [
        {
          "internalType": "bool",
          "name": "",
          "type": "bool"
        }
      ],
      "stateMutability": "nonpayable",
      "type": "function"
    },
    {
      "inputs": [],
      "name": "name",
      "outputs": [
        {
          "internalType": "string",
          "name": "",
          "type": "string"
        }
      ],
      "stateMutability": "view",
      "type": "function"
    },
    {
      "inputs": [
        {
          "internalType": "address",
          "name": "operator",
          "type": "address"
        },
        {
          "internalType": "address",
          "name": "from",
          "type": "address"
        },
        {
          "internalType": "uint256",
          "name": "tokenId",
          "type": "uint256"
        },
        {
          "internalType": "bytes",
          "name": "data",
          "type": "bytes"
        }
      ],
      "name": "onERC721Received",
      "outputs": [
        {
          "internalType": "bytes4",
          "name": "",
          "type": "bytes4"
        }
      ],
      "stateMutability": "nonpayable",
      "type": "function"
    },
    {
      "inputs": [],
      "name": "owner",
      "outputs": [
        {
          "internalType": "address",
          "name": "",
          "type": "address"
        }
      ],
      "stateMutability": "view",
      "type": "function"
    },
    {
      "inputs": [],
      "name": "paused",
      "outputs": [
        {
          "internalType": "bool",
          "name": "",
          "type": "bool"
        }
      ],
      "stateMutability": "view",
      "type": "function"
    },
    {
      "inputs": [],
      "name": "renounceOwnership",
      "outputs": [],
      "stateMutability": "nonpayable",
      "type": "function"
    },
    {
      "inputs": [
        {
          "internalType": "address",
          "name": "nftContractAddress",
          "type": "address"
        },
        {
          "internalType": "uint256",
          "name": "tokenId",
          "type": "uint256"
        }
      ],
      "name": "repayLoanForNFT",
      "outputs": [],
      "stateMutability": "payable",
      "type": "function"
    },
    {
      "inputs": [
        {
          "internalType": "uint256",
          "name": "cap",
          "type": "uint256"
        }
      ],
      "name": "setCap",
      "outputs": [],
      "stateMutability": "nonpayable",
      "type": "function"
    },
    {
      "inputs": [
        {
          "internalType": "address",
          "name": "foreclosureContract",
          "type": "address"
        }
      ],
      "name": "setForeclosureContract",
      "outputs": [],
      "stateMutability": "nonpayable",
      "type": "function"
    },
    {
      "inputs": [
        {
          "internalType": "uint256",
          "name": "duration",
          "type": "uint256"
        }
      ],
      "name": "setLoanDuration",
      "outputs": [],
      "stateMutability": "nonpayable",
      "type": "function"
    },
    {
      "inputs": [
        {
          "internalType": "uint256",
          "name": "price",
          "type": "uint256"
        }
      ],
      "name": "setPricePerShare",
      "outputs": [],
      "stateMutability": "nonpayable",
      "type": "function"
    },
    {
      "inputs": [],
      "name": "symbol",
      "outputs": [
        {
          "internalType": "string",
          "name": "",
          "type": "string"
        }
      ],
      "stateMutability": "view",
      "type": "function"
    },
    {
      "inputs": [
        {
          "internalType": "address",
          "name": "nftContractAddress",
          "type": "address"
        },
        {
          "internalType": "uint256",
          "name": "tokenId",
          "type": "uint256"
        }
      ],
      "name": "takeLoan",
      "outputs": [],
      "stateMutability": "nonpayable",
      "type": "function"
    },
    {
      "inputs": [],
      "name": "totalSupply",
      "outputs": [
        {
          "internalType": "uint256",
          "name": "",
          "type": "uint256"
        }
      ],
      "stateMutability": "view",
      "type": "function"
    },
    {
      "inputs": [
        {
          "internalType": "address",
          "name": "recipient",
          "type": "address"
        },
        {
          "internalType": "uint256",
          "name": "amount",
          "type": "uint256"
        }
      ],
      "name": "transfer",
      "outputs": [
        {
          "internalType": "bool",
          "name": "",
          "type": "bool"
        }
      ],
      "stateMutability": "nonpayable",
      "type": "function"
    },
    {
      "inputs": [
        {
          "internalType": "address",
          "name": "sender",
          "type": "address"
        },
        {
          "internalType": "address",
          "name": "recipient",
          "type": "address"
        },
        {
          "internalType": "uint256",
          "name": "amount",
          "type": "uint256"
        }
      ],
      "name": "transferFrom",
      "outputs": [
        {
          "internalType": "bool",
          "name": "",
          "type": "bool"
        }
      ],
      "stateMutability": "nonpayable",
      "type": "function"
    },
    {
      "inputs": [
        {
          "internalType": "address",
          "name": "newOwner",
          "type": "address"
        }
      ],
      "name": "transferOwnership",
      "outputs": [],
      "stateMutability": "nonpayable",
      "type": "function"
    },
    {
      "inputs": [
        {
          "internalType": "address",
          "name": "collectionAddress",
          "type": "address"
        },
        {
          "internalType": "uint256",
          "name": "lendingPrice",
          "type": "uint256"
        },
        {
          "internalType": "uint256",
          "name": "interestRatePercent",
          "type": "uint256"
        }
      ],
      "name": "whitelistCollection",
      "outputs": [],
      "stateMutability": "nonpayable",
      "type": "function"
    },
    {
      "inputs": [
        {
          "internalType": "uint256",
          "name": "amountRequested",
          "type": "uint256"
        }
      ],
      "name": "withdrawFunds",
      "outputs": [],
      "stateMutability": "nonpayable",
      "type": "function"
    }
  ],
  "transactionHash": "0x1afe6245d913e87ca0db7624720b5cc7f7ee298e5efd70eaa304ef3d6b117de3",
  "args": [],
  "solcInputHash": "9e8c046132413de1b817d87278ea3772",
  "bytecode": "0x6080604052681b1ae4d6e2ef50000060065562093a80600755670de0b6b3a7640000600855600a6009553480156200003657600080fd5b5060405180604001604052806009815260200168054414e47454c4f4c560bc1b815250604051806040016040528060038152602001620544c560ec1b81525081600390805190602001906200008d92919062000129565b508051620000a390600490602084019062000129565b505050620000c0620000ba620000d360201b60201c565b620000d7565b6005805460ff60a01b191690556200020c565b3390565b600580546001600160a01b038381166001600160a01b0319831681179093556040519116919082907f8be0079c531659141344cd1fd0a4f28419497f9722a3daafe3b4186f6b6457e090600090a35050565b8280546200013790620001cf565b90600052602060002090601f0160209004810192826200015b5760008555620001a6565b82601f106200017657805160ff1916838001178555620001a6565b82800160010185558215620001a6579182015b82811115620001a657825182559160200191906001019062000189565b50620001b4929150620001b8565b5090565b5b80821115620001b45760008155600101620001b9565b600281046001821680620001e457607f821691505b602082108114156200020657634e487b7160e01b600052602260045260246000fd5b50919050565b612490806200021c6000396000f3fe6080604052600436106102465760003560e01c8063715018a6116101395780639f8a3934116100b6578063dd62ed3e1161007a578063dd62ed3e14610680578063e2c41dbc146106a0578063e7cf0b4a146106a8578063ed12e8ef146106c8578063f2fde38b146106dd578063fa67e7ff146106fd57610246565b80639f8a3934146105eb578063a457c2d714610600578063a9059cbb14610620578063b824a0d814610640578063d2780fa01461066057610246565b8063905adcdd116100fd578063905adcdd1461057957806395d89b4114610599578063964ad6ed146105ae5780639da31417146105b65780639e358be1146105cb57610246565b8063715018a6146104e05780637c3fd019146104f55780638b0279d2146105155780638cce66be146105375780638da5cb5b1461055757610246565b8063313ce567116101c7578063538438321161018b578063538438321461044b5780635c975abb1461046b57806361e6027d1461048057806370a08231146104a057806370f447af146104c057610246565b8063313ce567146103b45780633506b59a146103d657806339509351146103f65780633d68175c1461041657806347786d371461042b57610246565b8063155dd5ee1161020e578063155dd5ee1461031f57806318160ddd1461033f57806322a4dc851461035457806323b872dd146103745780632ac149601461039457610246565b806306fdde031461024b578063095ea7b3146102765780630f8cc308146102a3578063118c9a07146102d0578063150b7a02146102f2575b600080fd5b34801561025757600080fd5b50610260610710565b60405161026d9190611d2a565b60405180910390f35b34801561028257600080fd5b50610296610291366004611c12565b6107a2565b60405161026d9190611d0a565b3480156102af57600080fd5b506102c36102be366004611c12565b6107bf565b60405161026d9190612384565b3480156102dc57600080fd5b506102f06102eb366004611c6d565b6107ea565b005b3480156102fe57600080fd5b5061031261030d366004611b7c565b610837565b60405161026d9190611d15565b34801561032b57600080fd5b506102f061033a366004611c6d565b610861565b34801561034b57600080fd5b506102c3610958565b34801561036057600080fd5b506102c361036f366004611aee565b61095e565b34801561038057600080fd5b5061029661038f366004611b41565b61097d565b3480156103a057600080fd5b506102f06103af366004611aee565b610a0d565b3480156103c057600080fd5b506103c9610a4f565b60405161026d919061238d565b3480156103e257600080fd5b506102c36103f1366004611aee565b610a54565b34801561040257600080fd5b50610296610411366004611c12565b610a6f565b34801561042257600080fd5b506102c3610ac3565b34801561043757600080fd5b506102f0610446366004611c6d565b610ac9565b34801561045757600080fd5b506102c3610466366004611aee565b610b0d565b34801561047757600080fd5b50610296610b4d565b34801561048c57600080fd5b506102c361049b366004611c12565b610b5d565b3480156104ac57600080fd5b506102c36104bb366004611aee565b610b88565b3480156104cc57600080fd5b506102c36104db366004611aee565b610ba3565b3480156104ec57600080fd5b506102f0610bbe565b34801561050157600080fd5b506102c3610510366004611c12565b610c09565b34801561052157600080fd5b5061052a610c34565b60405161026d9190611cbd565b34801561054357600080fd5b506102f0610552366004611c3b565b610c95565b34801561056357600080fd5b5061056c610d3c565b60405161026d9190611c85565b34801561058557600080fd5b506102f0610594366004611c12565b610d4b565b3480156105a557600080fd5b50610260610f1f565b6102f0610f2e565b3480156105c257600080fd5b5061052a610f9b565b3480156105d757600080fd5b506102f06105e6366004611c12565b610ffb565b3480156105f757600080fd5b506102c361124b565b34801561060c57600080fd5b5061029661061b366004611c12565b611251565b34801561062c57600080fd5b5061029661063b366004611c12565b6112ca565b34801561064c57600080fd5b5061056c61065b366004611c12565b6112de565b34801561066c57600080fd5b506102f061067b366004611c6d565b611306565b34801561068c57600080fd5b506102c361069b366004611b0f565b61134a565b6102f0611375565b3480156106b457600080fd5b506102c36106c3366004611aee565b61147a565b3480156106d457600080fd5b506102c3611491565b3480156106e957600080fd5b506102f06106f8366004611aee565b611497565b6102f061070b366004611c12565b611505565b60606003805461071f90612409565b80601f016020809104026020016040519081016040528092919081815260200182805461074b90612409565b80156107985780601f1061076d57610100808354040283529160200191610798565b820191906000526020600020905b81548152906001019060200180831161077b57829003601f168201915b5050505050905090565b60006107b66107af6116eb565b84846116ef565b50600192915050565b6001600160a01b03919091166000908152600e60209081526040808320938352929052206003015490565b6107f26116eb565b6001600160a01b0316610803610d3c565b6001600160a01b0316146108325760405162461bcd60e51b815260040161082990612104565b60405180910390fd5b600855565b7f150b7a023d4804d13e8c85fb27262cb750cf6ba9f9dd3bb30d90f482ceeb4b1f95945050505050565b610869610b4d565b156108865760405162461bcd60e51b815260040161082990612092565b60006108913361147a565b9050808211156108b35760405162461bcd60e51b815260040161082990611f71565b600b548211156108d55760405162461bcd60e51b815260040161082990611fee565b6008546000906108ed84670de0b6b3a76400006123d3565b6108f791906123b3565b905061090333826117a3565b82600a5461091191906123f2565b600a55600b546109229084906123f2565b600b55604051339084156108fc029085906000818181858888f19350505050158015610952573d6000803e3d6000fd5b50505050565b60025490565b6001600160a01b0381166000908152600d60205260409020545b919050565b600061098a848484611895565b6001600160a01b0384166000908152600160205260408120816109ab6116eb565b6001600160a01b03166001600160a01b03168152602001908152602001600020549050828110156109ee5760405162461bcd60e51b8152600401610829906120bc565b610a02856109fa6116eb565b8584036116ef565b506001949350505050565b610a156116eb565b6001600160a01b0316610a26610d3c565b6001600160a01b031614610a4c5760405162461bcd60e51b815260040161082990612104565b50565b601290565b6001600160a01b03166000908152600c602052604090205490565b60006107b6610a7c6116eb565b848460016000610a8a6116eb565b6001600160a01b03908116825260208083019390935260409182016000908120918b1681529252902054610abe919061239b565b6116ef565b60085490565b610ad16116eb565b6001600160a01b0316610ae2610d3c565b6001600160a01b031614610b085760405162461bcd60e51b815260040161082990612104565b600655565b6001600160a01b0381166000908152600d602052604081205461271090610b3384610a54565b610b3d91906123d3565b610b4791906123b3565b92915050565b600554600160a01b900460ff1690565b6001600160a01b03919091166000908152600e60209081526040808320938352929052206002015490565b6001600160a01b031660009081526020819052604090205490565b6001600160a01b031660009081526010602052604090205490565b610bc66116eb565b6001600160a01b0316610bd7610d3c565b6001600160a01b031614610bfd5760405162461bcd60e51b815260040161082990612104565b610c0760006119b9565b565b6001600160a01b03919091166000908152600e60209081526040808320938352929052206001015490565b6060601380548060200260200160405190810160405280929190818152602001828054801561079857602002820191906000526020600020905b81546001600160a01b03168152600190910190602001808311610c6e575050505050905090565b610c9d6116eb565b6001600160a01b0316610cae610d3c565b6001600160a01b031614610cd45760405162461bcd60e51b815260040161082990612104565b60138054600181019091557f66de8ffda797e3de9c05e8fc57b3bf0ec28a930d40b0d285d93c06501cf6a0900180546001600160a01b039094166001600160a01b0319909416841790556000928352600c6020908152604080852093909355600d9052912055565b6005546001600160a01b031690565b610d536116eb565b6001600160a01b0316610d64610d3c565b6001600160a01b031614610d8a5760405162461bcd60e51b815260040161082990612104565b610d92610b4d565b15610daf5760405162461bcd60e51b815260040161082990612092565b6001600160a01b038083166000908152600e60209081526040808320858452808352818420825160808101845281549096168652600181015486850152600281015492860192909252600390910154606085018190529285905290524211610e295760405162461bcd60e51b815260040161082990611dc0565b601454604051632142170760e11b815284916001600160a01b03808416926342842e0e92610e609230929116908890600401611c99565b600060405180830381600087803b158015610e7a57600080fd5b505af1158015610e8e573d6000803e3d6000fd5b50505050600a548260200151600854610ea791906123d3565b610eb191906123b3565b600854610ebe91906123f2565b6008556020820151600a54610ed391906123f2565b600a5550506001600160a01b039091166000908152600e6020908152604080832093835292905290812080546001600160a01b0319168155600181018290556002810182905560030155565b60606004805461071f90612409565b610f36610b4d565b15610f535760405162461bcd60e51b815260040161082990612092565b60003411610f735760405162461bcd60e51b815260040161082990612215565b600a5434600854610f8491906123d3565b610f8e91906123b3565b600854610832919061239b565b60606011805480602002602001604051908101604052809291908181526020018280548015610798576020028201919060005260206000209081546001600160a01b03168152600190910190602001808311610c6e575050505050905090565b611003610b4d565b156110205760405162461bcd60e51b815260040161082990612092565b6001600160a01b0382166000908152600c602052604090205482906110575760405162461bcd60e51b815260040161082990611f3c565b600061106284610a54565b9050600061106f85610b0d565b9050600b548211156110935760405162461bcd60e51b8152600401610829906122bc565b6064600954600a546110a591906123d3565b6110af91906123b3565b82600b546110bd91906123f2565b116110da5760405162461bcd60e51b8152600401610829906121bf565b604051632142170760e11b81526001600160a01b038416906342842e0e9061110a90339030908990600401611c99565b600060405180830381600087803b15801561112457600080fd5b505af1158015611138573d6000803e3d6000fd5b505050506040518060800160405280336001600160a01b0316815260200183815260200182815260200160075442611170919061239b565b90526001600160a01b038087166000908152600e6020908152604080832089845282528083208551815495166001600160a01b03199586161781559185015160018084019190915590850151600283015560609094015160039091015560128054938401815590527fbb8a6a4669ba250d26cd7a459eca9d215f8307e33aebe50379bc5a3617ec3444909101805490911633179055600b546112139083906123f2565b600b55604051339083156108fc029084906000818181858888f19350505050158015611243573d6000803e3d6000fd5b505050505050565b60065490565b600080600160006112606116eb565b6001600160a01b03908116825260208083019390935260409182016000908120918816815292529020549050828110156112ac5760405162461bcd60e51b815260040161082990612308565b6112c06112b76116eb565b858584036116ef565b5060019392505050565b60006107b66112d76116eb565b8484611895565b6001600160a01b039182166000908152600e6020908152604080832093835292905220541690565b61130e6116eb565b6001600160a01b031661131f610d3c565b6001600160a01b0316146113455760405162461bcd60e51b815260040161082990612104565b600755565b6001600160a01b03918216600090815260016020908152604080832093909416825291909152205490565b61137d610b4d565b1561139a5760405162461bcd60e51b815260040161082990612092565b600034116113ba5760405162461bcd60e51b81526004016108299061205b565b600654600a546113ca903461239b565b11156113e85760405162461bcd60e51b815260040161082990612290565b601180546001810182556000919091527f31ecc21a745e3968a04e9570e4425bc18fa8019c68028196b546d1669c200c680180546001600160a01b03191633179055600a5461143890349061239b565b600a55600b5461144990349061239b565b600b5560085460009061146434670de0b6b3a76400006123d3565b61146e91906123b3565b9050610a4c3382611a0b565b6000670de0b6b3a7640000600854610b3384610b88565b600a5490565b61149f6116eb565b6001600160a01b03166114b0610d3c565b6001600160a01b0316146114d65760405162461bcd60e51b815260040161082990612104565b6001600160a01b0381166114fc5760405162461bcd60e51b815260040161082990611e67565b610a4c816119b9565b61150d610b4d565b1561152a5760405162461bcd60e51b815260040161082990612092565b6001600160a01b038083166000908152600e6020908152604080832085845282529182902082516080810184528154909416808552600182015492850192909252600281015492840192909252600390910154606083015283919033146115a35760405162461bcd60e51b815260040161082990611eef565b806040015181602001516115b7919061239b565b34146115d55760405162461bcd60e51b815260040161082990611e30565b600a5481604001516008546115ea91906123d3565b6115f491906123b3565b600854611601919061239b565b6008556040810151600a54611616919061239b565b600a5560408101516020820151600b54611630919061239b565b61163a919061239b565b600b55604051632142170760e11b81526001600160a01b038316906342842e0e9061166d90309033908890600401611c99565b600060405180830381600087803b15801561168757600080fd5b505af115801561169b573d6000803e3d6000fd5b5050506001600160a01b039094166000908152600e6020908152604080832095835294905292832080546001600160a01b0319168155600181018490556002810184905560030192909255505050565b3390565b6001600160a01b0383166117155760405162461bcd60e51b81526004016108299061224c565b6001600160a01b03821661173b5760405162461bcd60e51b815260040161082990611ead565b6001600160a01b0380841660008181526001602090815260408083209487168084529490915290819020849055517f8c5be1e5ebec7d5bd14f71427d1e84f3dd0314c0f7b2291e5b200ac8c7c3b92590611796908590612384565b60405180910390a3505050565b6001600160a01b0382166117c95760405162461bcd60e51b815260040161082990612139565b6117d582600083611890565b6001600160a01b0382166000908152602081905260409020548181101561180e5760405162461bcd60e51b815260040161082990611dee565b6001600160a01b038316600090815260208190526040812083830390556002805484929061183d9084906123f2565b90915550506040516000906001600160a01b038516907fddf252ad1be2c89b69c2b068fc378daa952ba7f163c4a11628f55a4df523b3ef90611880908690612384565b60405180910390a3611890836000845b505050565b6001600160a01b0383166118bb5760405162461bcd60e51b81526004016108299061217a565b6001600160a01b0382166118e15760405162461bcd60e51b815260040161082990611d7d565b6118ec838383611890565b6001600160a01b038316600090815260208190526040902054818110156119255760405162461bcd60e51b815260040161082990611fa8565b6001600160a01b0380851660009081526020819052604080822085850390559185168152908120805484929061195c90849061239b565b92505081905550826001600160a01b0316846001600160a01b03167fddf252ad1be2c89b69c2b068fc378daa952ba7f163c4a11628f55a4df523b3ef846040516119a69190612384565b60405180910390a3610952848484611890565b600580546001600160a01b038381166001600160a01b0319831681179093556040519116919082907f8be0079c531659141344cd1fd0a4f28419497f9722a3daafe3b4186f6b6457e090600090a35050565b6001600160a01b038216611a315760405162461bcd60e51b81526004016108299061234d565b611a3d60008383611890565b8060026000828254611a4f919061239b565b90915550506001600160a01b03821660009081526020819052604081208054839290611a7c90849061239b565b90915550506040516001600160a01b038316906000907fddf252ad1be2c89b69c2b068fc378daa952ba7f163c4a11628f55a4df523b3ef90611abf908590612384565b60405180910390a3611ad360008383611890565b5050565b80356001600160a01b038116811461097857600080fd5b600060208284031215611aff578081fd5b611b0882611ad7565b9392505050565b60008060408385031215611b21578081fd5b611b2a83611ad7565b9150611b3860208401611ad7565b90509250929050565b600080600060608486031215611b55578081fd5b611b5e84611ad7565b9250611b6c60208501611ad7565b9150604084013590509250925092565b600080600080600060808688031215611b93578081fd5b611b9c86611ad7565b9450611baa60208701611ad7565b935060408601359250606086013567ffffffffffffffff80821115611bcd578283fd5b818801915088601f830112611be0578283fd5b813581811115611bee578384fd5b896020828501011115611bff578384fd5b9699959850939650602001949392505050565b60008060408385031215611c24578182fd5b611c2d83611ad7565b946020939093013593505050565b600080600060608486031215611c4f578283fd5b611c5884611ad7565b95602085013595506040909401359392505050565b600060208284031215611c7e578081fd5b5035919050565b6001600160a01b0391909116815260200190565b6001600160a01b039384168152919092166020820152604081019190915260600190565b6020808252825182820181905260009190848201906040850190845b81811015611cfe5783516001600160a01b031683529284019291840191600101611cd9565b50909695505050505050565b901515815260200190565b6001600160e01b031991909116815260200190565b6000602080835283518082850152825b81811015611d5657858101830151858201604001528201611d3a565b81811115611d675783604083870101525b50601f01601f1916929092016040019392505050565b60208082526023908201527f45524332303a207472616e7366657220746f20746865207a65726f206164647260408201526265737360e81b606082015260800190565b60208082526014908201527310d85b9b9bdd08199bdc9958db1bdcd9481e595d60621b604082015260600190565b60208082526022908201527f45524332303a206275726e20616d6f756e7420657863656564732062616c616e604082015261636560f01b606082015260800190565b60208082526017908201527f53656e642074686520636f727265637420616d6f756e74000000000000000000604082015260600190565b60208082526026908201527f4f776e61626c653a206e6577206f776e657220697320746865207a65726f206160408201526564647265737360d01b606082015260800190565b60208082526022908201527f45524332303a20617070726f766520746f20746865207a65726f206164647265604082015261737360f01b606082015260800190565b6020808252602d908201527f43616c6c6572206d75737420626520746865206f6e652077686f206465706f7360408201526c1a5d1959081d1a1a5cc8139195609a1b606082015260800190565b6020808252818101527f4e465420636f6c6c656374696f6e206e6f7420737570706f7274656420796574604082015260600190565b6020808252601c908201527f4e6f7420656e6f7567682066756e647320746f20776974686472617700000000604082015260600190565b60208082526026908201527f45524332303a207472616e7366657220616d6f756e7420657863656564732062604082015265616c616e636560d01b606082015260800190565b60208082526047908201527f5661756c74206361706974616c206973206465706c6f79656420616e6420313060408201527f2520776974686472617720616c6c6f636174696f6e2077617320616c726561646060820152663c903a30b5b2b760c91b608082015260a00190565b6020808252601c908201527f4d757374206465706f73697420706f73697469766520616d6f756e7400000000604082015260600190565b60208082526010908201526f14185d5cd8589b194e881c185d5cd95960821b604082015260600190565b60208082526028908201527f45524332303a207472616e7366657220616d6f756e74206578636565647320616040820152676c6c6f77616e636560c01b606082015260800190565b6020808252818101527f4f776e61626c653a2063616c6c6572206973206e6f7420746865206f776e6572604082015260600190565b60208082526021908201527f45524332303a206275726e2066726f6d20746865207a65726f206164647265736040820152607360f81b606082015260800190565b60208082526025908201527f45524332303a207472616e736665722066726f6d20746865207a65726f206164604082015264647265737360d81b606082015260800190565b60208082526036908201527f5472616e736665722072656475636573207661756c742062616c616e63652062604082015275656c6f7720776974687264726177207265736572766560501b606082015260800190565b6020808252601b908201527f4d75737420646f6e61746520706f73697469766520616d6f756e740000000000604082015260600190565b60208082526024908201527f45524332303a20617070726f76652066726f6d20746865207a65726f206164646040820152637265737360e01b606082015260800190565b60208082526012908201527115985d5b1d0818d85c08195e18d95959195960721b604082015260600190565b6020808252602c908201527f4e6f7420656e6f7567682066756e647320696e207661756c7420746f20636f7660408201526b32b9103a3434b9903637b0b760a11b606082015260800190565b60208082526025908201527f45524332303a2064656372656173656420616c6c6f77616e63652062656c6f77604082015264207a65726f60d81b606082015260800190565b6020808252601f908201527f45524332303a206d696e7420746f20746865207a65726f206164647265737300604082015260600190565b90815260200190565b60ff91909116815260200190565b600082198211156123ae576123ae612444565b500190565b6000826123ce57634e487b7160e01b81526012600452602481fd5b500490565b60008160001904831182151516156123ed576123ed612444565b500290565b60008282101561240457612404612444565b500390565b60028104600182168061241d57607f821691505b6020821081141561243e57634e487b7160e01b600052602260045260246000fd5b50919050565b634e487b7160e01b600052601160045260246000fdfea2646970667358221220d2492059c1a3c1435e3ba7d2ac68cc68d332085ecd2d9d64306fb6e890e1424164736f6c63430008000033",
  "devdoc": {
    "kind": "dev",
    "methods": {
      "allowance(address,address)": {
        "details": "See {IERC20-allowance}."
      },
      "approve(address,uint256)": {
        "details": "See {IERC20-approve}. Requirements: - `spender` cannot be the zero address."
      },
      "balanceOf(address)": {
        "details": "See {IERC20-balanceOf}."
      },
      "decimals()": {
        "details": "Returns the number of decimals used to get its user representation. For example, if `decimals` equals `2`, a balance of `505` tokens should be displayed to a user as `5.05` (`505 / 10 ** 2`). Tokens usually opt for a value of 18, imitating the relationship between Ether and Wei. This is the value {ERC20} uses, unless this function is overridden; NOTE: This information is only used for _display_ purposes: it in no way affects any of the arithmetic of the contract, including {IERC20-balanceOf} and {IERC20-transfer}."
      },
      "decreaseAllowance(address,uint256)": {
        "details": "Atomically decreases the allowance granted to `spender` by the caller. This is an alternative to {approve} that can be used as a mitigation for problems described in {IERC20-approve}. Emits an {Approval} event indicating the updated allowance. Requirements: - `spender` cannot be the zero address. - `spender` must have allowance for the caller of at least `subtractedValue`."
      },
      "increaseAllowance(address,uint256)": {
        "details": "Atomically increases the allowance granted to `spender` by the caller. This is an alternative to {approve} that can be used as a mitigation for problems described in {IERC20-approve}. Emits an {Approval} event indicating the updated allowance. Requirements: - `spender` cannot be the zero address."
      },
      "name()": {
        "details": "Returns the name of the token."
      },
      "onERC721Received(address,address,uint256,bytes)": {
        "details": "Whenever an {IERC721} `tokenId` token is transferred to this contract via {IERC721-safeTransferFrom} by `operator` from `from`, this function is called. It must return its Solidity selector to confirm the token transfer. If any other value is returned or the interface is not implemented by the recipient, the transfer will be reverted. The selector can be obtained in Solidity with `IERC721.onERC721Received.selector`."
      },
      "owner()": {
        "details": "Returns the address of the current owner."
      },
      "paused()": {
        "details": "Returns true if the contract is paused, and false otherwise."
      },
      "renounceOwnership()": {
        "details": "Leaves the contract without owner. It will not be possible to call `onlyOwner` functions anymore. Can only be called by the current owner. NOTE: Renouncing ownership will leave the contract without an owner, thereby removing any functionality that is only available to the owner."
      },
      "symbol()": {
        "details": "Returns the symbol of the token, usually a shorter version of the name."
      },
      "totalSupply()": {
        "details": "See {IERC20-totalSupply}."
      },
      "transfer(address,uint256)": {
        "details": "See {IERC20-transfer}. Requirements: - `recipient` cannot be the zero address. - the caller must have a balance of at least `amount`."
      },
      "transferFrom(address,address,uint256)": {
        "details": "See {IERC20-transferFrom}. Emits an {Approval} event indicating the updated allowance. This is not required by the EIP. See the note at the beginning of {ERC20}. Requirements: - `sender` and `recipient` cannot be the zero address. - `sender` must have a balance of at least `amount`. - the caller must have allowance for ``sender``'s tokens of at least `amount`."
      },
      "transferOwnership(address)": {
        "details": "Transfers ownership of the contract to a new account (`newOwner`). Can only be called by the current owner."
      }
    },
    "version": 1
  },
  "userdoc": {
    "kind": "user",
    "methods": {},
    "version": 1
  },
  "storageLayout": {
    "storage": [
      {
        "astId": 211,
        "contract": "contracts/Tangelo.sol:Tangelo",
        "label": "_balances",
        "offset": 0,
        "slot": "0",
        "type": "t_mapping(t_address,t_uint256)"
      },
      {
        "astId": 217,
        "contract": "contracts/Tangelo.sol:Tangelo",
        "label": "_allowances",
        "offset": 0,
        "slot": "1",
        "type": "t_mapping(t_address,t_mapping(t_address,t_uint256))"
      },
      {
        "astId": 219,
        "contract": "contracts/Tangelo.sol:Tangelo",
        "label": "_totalSupply",
        "offset": 0,
        "slot": "2",
        "type": "t_uint256"
      },
      {
        "astId": 221,
        "contract": "contracts/Tangelo.sol:Tangelo",
        "label": "_name",
        "offset": 0,
        "slot": "3",
        "type": "t_string_storage"
      },
      {
        "astId": 223,
        "contract": "contracts/Tangelo.sol:Tangelo",
        "label": "_symbol",
        "offset": 0,
        "slot": "4",
        "type": "t_string_storage"
      },
      {
        "astId": 7,
        "contract": "contracts/Tangelo.sol:Tangelo",
        "label": "_owner",
        "offset": 0,
        "slot": "5",
        "type": "t_address"
      },
      {
        "astId": 121,
        "contract": "contracts/Tangelo.sol:Tangelo",
        "label": "_paused",
        "offset": 20,
        "slot": "5",
        "type": "t_bool"
      },
      {
        "astId": 2710,
        "contract": "contracts/Tangelo.sol:Tangelo",
        "label": "vaultCap",
        "offset": 0,
        "slot": "6",
        "type": "t_uint256"
      },
      {
        "astId": 2713,
        "contract": "contracts/Tangelo.sol:Tangelo",
        "label": "loanDuration",
        "offset": 0,
        "slot": "7",
        "type": "t_uint256"
      },
      {
        "astId": 2716,
        "contract": "contracts/Tangelo.sol:Tangelo",
        "label": "pricePerShare",
        "offset": 0,
        "slot": "8",
        "type": "t_uint256"
      },
      {
        "astId": 2719,
        "contract": "contracts/Tangelo.sol:Tangelo",
        "label": "vaultReservePercent",
        "offset": 0,
        "slot": "9",
        "type": "t_uint256"
      },
      {
        "astId": 2721,
        "contract": "contracts/Tangelo.sol:Tangelo",
        "label": "vaultBalance",
        "offset": 0,
        "slot": "10",
        "type": "t_uint256"
      },
      {
        "astId": 2723,
        "contract": "contracts/Tangelo.sol:Tangelo",
        "label": "vaultBalanceAvailable",
        "offset": 0,
        "slot": "11",
        "type": "t_uint256"
      },
      {
        "astId": 2736,
        "contract": "contracts/Tangelo.sol:Tangelo",
        "label": "collectionLendingPrice",
        "offset": 0,
        "slot": "12",
        "type": "t_mapping(t_address,t_uint256)"
      },
      {
        "astId": 2740,
        "contract": "contracts/Tangelo.sol:Tangelo",
        "label": "collectionInterestRate",
        "offset": 0,
        "slot": "13",
        "type": "t_mapping(t_address,t_uint256)"
      },
      {
        "astId": 2747,
        "contract": "contracts/Tangelo.sol:Tangelo",
        "label": "lockedNFTs",
        "offset": 0,
        "slot": "14",
        "type": "t_mapping(t_address,t_mapping(t_uint256,t_struct(NFTLoan)2732_storage))"
      },
      {
        "astId": 2751,
        "contract": "contracts/Tangelo.sol:Tangelo",
        "label": "outstandingLoans",
        "offset": 0,
        "slot": "15",
        "type": "t_mapping(t_address,t_uint256)"
      },
      {
        "astId": 2755,
        "contract": "contracts/Tangelo.sol:Tangelo",
        "label": "deposits",
        "offset": 0,
        "slot": "16",
        "type": "t_mapping(t_address,t_uint256)"
      },
      {
        "astId": 2758,
        "contract": "contracts/Tangelo.sol:Tangelo",
        "label": "depositors",
        "offset": 0,
        "slot": "17",
        "type": "t_array(t_address)dyn_storage"
      },
      {
        "astId": 2761,
        "contract": "contracts/Tangelo.sol:Tangelo",
        "label": "borrowers",
        "offset": 0,
        "slot": "18",
        "type": "t_array(t_address)dyn_storage"
      },
      {
        "astId": 2764,
        "contract": "contracts/Tangelo.sol:Tangelo",
        "label": "collections",
        "offset": 0,
        "slot": "19",
        "type": "t_array(t_address)dyn_storage"
      },
      {
        "astId": 2766,
        "contract": "contracts/Tangelo.sol:Tangelo",
        "label": "foreclosureContract",
        "offset": 0,
        "slot": "20",
        "type": "t_address"
      }
    ],
    "types": {
      "t_address": {
        "encoding": "inplace",
        "label": "address",
        "numberOfBytes": "20"
      },
      "t_array(t_address)dyn_storage": {
        "base": "t_address",
        "encoding": "dynamic_array",
        "label": "address[]",
        "numberOfBytes": "32"
      },
      "t_bool": {
        "encoding": "inplace",
        "label": "bool",
        "numberOfBytes": "1"
      },
      "t_mapping(t_address,t_mapping(t_address,t_uint256))": {
        "encoding": "mapping",
        "key": "t_address",
        "label": "mapping(address => mapping(address => uint256))",
        "numberOfBytes": "32",
        "value": "t_mapping(t_address,t_uint256)"
      },
      "t_mapping(t_address,t_mapping(t_uint256,t_struct(NFTLoan)2732_storage))": {
        "encoding": "mapping",
        "key": "t_address",
        "label": "mapping(address => mapping(uint256 => struct Tangelo.NFTLoan))",
        "numberOfBytes": "32",
        "value": "t_mapping(t_uint256,t_struct(NFTLoan)2732_storage)"
      },
      "t_mapping(t_address,t_uint256)": {
        "encoding": "mapping",
        "key": "t_address",
        "label": "mapping(address => uint256)",
        "numberOfBytes": "32",
        "value": "t_uint256"
      },
      "t_mapping(t_uint256,t_struct(NFTLoan)2732_storage)": {
        "encoding": "mapping",
        "key": "t_uint256",
        "label": "mapping(uint256 => struct Tangelo.NFTLoan)",
        "numberOfBytes": "32",
        "value": "t_struct(NFTLoan)2732_storage"
      },
      "t_string_storage": {
        "encoding": "bytes",
        "label": "string",
        "numberOfBytes": "32"
      },
      "t_struct(NFTLoan)2732_storage": {
        "encoding": "inplace",
        "label": "struct Tangelo.NFTLoan",
        "members": [
          {
            "astId": 2725,
            "contract": "contracts/Tangelo.sol:Tangelo",
            "label": "nftOwner",
            "offset": 0,
            "slot": "0",
            "type": "t_address"
          },
          {
            "astId": 2727,
            "contract": "contracts/Tangelo.sol:Tangelo",
            "label": "loanPrincipal",
            "offset": 0,
            "slot": "1",
            "type": "t_uint256"
          },
          {
            "astId": 2729,
            "contract": "contracts/Tangelo.sol:Tangelo",
            "label": "loanInterestAmount",
            "offset": 0,
            "slot": "2",
            "type": "t_uint256"
          },
          {
            "astId": 2731,
            "contract": "contracts/Tangelo.sol:Tangelo",
            "label": "dueDate",
            "offset": 0,
            "slot": "3",
            "type": "t_uint256"
          }
        ],
        "numberOfBytes": "128"
      },
      "t_uint256": {
        "encoding": "inplace",
        "label": "uint256",
        "numberOfBytes": "32"
      }
    }
  }
}